{
  "contractName": "AnimeFace",
  "abi": [
    {
      "constant": true,
      "inputs": [],
      "name": "name",
      "outputs": [
        {
          "name": "",
          "type": "string"
        }
      ],
      "payable": false,
      "stateMutability": "view",
      "type": "function"
    },
    {
      "constant": true,
      "inputs": [
        {
          "name": "",
          "type": "uint256"
        }
      ],
      "name": "ganIndexToApproved",
      "outputs": [
        {
          "name": "",
          "type": "address"
        }
      ],
      "payable": false,
      "stateMutability": "view",
      "type": "function"
    },
    {
      "constant": true,
      "inputs": [
        {
          "name": "",
          "type": "uint256"
        }
      ],
      "name": "faceBids",
      "outputs": [
        {
          "name": "hasBid",
          "type": "bool"
        },
        {
          "name": "faceId",
          "type": "uint256"
        },
        {
          "name": "bidder",
          "type": "address"
        },
        {
          "name": "value",
          "type": "uint256"
        }
      ],
      "payable": false,
      "stateMutability": "view",
      "type": "function"
    },
    {
      "constant": true,
      "inputs": [
        {
          "name": "",
          "type": "uint256"
        }
      ],
      "name": "faceOfferedForSale",
      "outputs": [
        {
          "name": "isForSale",
          "type": "bool"
        },
        {
          "name": "faceId",
          "type": "uint256"
        },
        {
          "name": "seller",
          "type": "address"
        },
        {
          "name": "minValue",
          "type": "uint256"
        },
        {
          "name": "onlySellTo",
          "type": "address"
        }
      ],
      "payable": false,
      "stateMutability": "view",
      "type": "function"
    },
    {
      "constant": true,
      "inputs": [
        {
          "name": "",
          "type": "address"
        },
        {
          "name": "",
          "type": "uint256"
        }
      ],
      "name": "ownerBank",
      "outputs": [
        {
          "name": "",
          "type": "uint256"
        }
      ],
      "payable": false,
      "stateMutability": "view",
      "type": "function"
    },
    {
      "constant": true,
      "inputs": [],
      "name": "owner",
      "outputs": [
        {
          "name": "",
          "type": "address"
        }
      ],
      "payable": false,
      "stateMutability": "view",
      "type": "function"
    },
    {
      "constant": true,
      "inputs": [],
      "name": "symbol",
      "outputs": [
        {
          "name": "",
          "type": "string"
        }
      ],
      "payable": false,
      "stateMutability": "view",
      "type": "function"
    },
    {
      "constant": true,
      "inputs": [
        {
          "name": "",
          "type": "address"
        }
      ],
      "name": "ownershipCounts",
      "outputs": [
        {
          "name": "",
          "type": "uint256"
        }
      ],
      "payable": false,
      "stateMutability": "view",
      "type": "function"
    },
    {
      "constant": true,
      "inputs": [
        {
          "name": "",
          "type": "uint256"
        }
      ],
      "name": "faceIds",
      "outputs": [
        {
          "name": "",
          "type": "uint256"
        }
      ],
      "payable": false,
      "stateMutability": "view",
      "type": "function"
    },
    {
      "constant": true,
      "inputs": [
        {
          "name": "",
          "type": "uint256"
        }
      ],
      "name": "face_mapping",
      "outputs": [
        {
          "name": "",
          "type": "address"
        }
      ],
      "payable": false,
      "stateMutability": "view",
      "type": "function"
    },
    {
      "constant": false,
      "inputs": [
        {
          "name": "newOwner",
          "type": "address"
        }
      ],
      "name": "transferOwnership",
      "outputs": [],
      "payable": false,
      "stateMutability": "nonpayable",
      "type": "function"
    },
    {
      "constant": true,
      "inputs": [
        {
          "name": "",
          "type": "address"
        }
      ],
      "name": "pendingWithdrawals",
      "outputs": [
        {
          "name": "",
          "type": "uint256"
        }
      ],
      "payable": false,
      "stateMutability": "view",
      "type": "function"
    },
    {
      "anonymous": false,
      "inputs": [
        {
          "indexed": true,
          "name": "from",
          "type": "address"
        },
        {
          "indexed": true,
          "name": "to",
          "type": "address"
        },
        {
          "indexed": false,
          "name": "value",
          "type": "uint256"
        }
      ],
      "name": "Transfer",
      "type": "event"
    },
    {
      "anonymous": false,
      "inputs": [
        {
          "indexed": false,
          "name": "faceId",
          "type": "uint256"
        },
        {
          "indexed": false,
          "name": "value",
          "type": "uint256"
        },
        {
          "indexed": false,
          "name": "sender",
          "type": "address"
        }
      ],
      "name": "BidForFaceOffered",
      "type": "event"
    },
    {
      "anonymous": false,
      "inputs": [
        {
          "indexed": false,
          "name": "faceId",
          "type": "uint256"
        },
        {
          "indexed": false,
          "name": "claimer",
          "type": "address"
        }
      ],
      "name": "NewFace",
      "type": "event"
    },
    {
      "anonymous": false,
      "inputs": [
        {
          "indexed": false,
          "name": "faceId",
          "type": "uint256"
        },
        {
          "indexed": false,
          "name": "value",
          "type": "uint256"
        },
        {
          "indexed": false,
          "name": "sender",
          "type": "address"
        },
        {
          "indexed": false,
          "name": "bidder",
          "type": "address"
        }
      ],
      "name": "FaceBought",
      "type": "event"
    },
    {
      "anonymous": false,
      "inputs": [
        {
          "indexed": false,
          "name": "faceId",
          "type": "uint256"
        },
        {
          "indexed": false,
          "name": "minSalePriceInWei",
          "type": "uint256"
        },
        {
          "indexed": false,
          "name": "onlySellTo",
          "type": "address"
        }
      ],
      "name": "FaceOfferedForSale",
      "type": "event"
    },
    {
      "anonymous": false,
      "inputs": [
        {
          "indexed": false,
          "name": "faceId",
          "type": "uint256"
        }
      ],
      "name": "FaceNoLongerForSale",
      "type": "event"
    },
    {
      "anonymous": false,
      "inputs": [
        {
          "indexed": false,
          "name": "owner",
          "type": "address"
        },
        {
          "indexed": false,
          "name": "approved",
          "type": "address"
        },
        {
          "indexed": false,
          "name": "tokenId",
          "type": "uint256"
        }
      ],
      "name": "Approval",
      "type": "event"
    },
    {
      "anonymous": false,
      "inputs": [
        {
          "indexed": true,
          "name": "previousOwner",
          "type": "address"
        },
        {
          "indexed": true,
          "name": "newOwner",
          "type": "address"
        }
      ],
      "name": "OwnershipTransferred",
      "type": "event"
    },
    {
      "constant": true,
      "inputs": [],
      "name": "totalSupply",
      "outputs": [
        {
          "name": "total",
          "type": "uint256"
        }
      ],
      "payable": false,
      "stateMutability": "view",
      "type": "function"
    },
    {
      "constant": true,
      "inputs": [
        {
          "name": "_owner",
          "type": "address"
        }
      ],
      "name": "balanceOf",
      "outputs": [
        {
          "name": "balance",
          "type": "uint256"
        }
      ],
      "payable": false,
      "stateMutability": "view",
      "type": "function"
    },
    {
      "constant": true,
      "inputs": [
        {
          "name": "_tokenId",
          "type": "uint256"
        }
      ],
      "name": "ownerOf",
      "outputs": [
        {
          "name": "owner",
          "type": "address"
        }
      ],
      "payable": false,
      "stateMutability": "view",
      "type": "function"
    },
    {
      "constant": true,
      "inputs": [
        {
          "name": "_owner",
          "type": "address"
        }
      ],
      "name": "tokensOfOwner",
      "outputs": [
        {
          "name": "",
          "type": "uint256[]"
        }
      ],
      "payable": false,
      "stateMutability": "view",
      "type": "function"
    },
    {
      "constant": false,
      "inputs": [
        {
          "name": "_to",
          "type": "address"
        },
        {
          "name": "_tokenId",
          "type": "uint256"
        }
      ],
      "name": "approve",
      "outputs": [],
      "payable": false,
      "stateMutability": "nonpayable",
      "type": "function"
    },
    {
      "constant": false,
      "inputs": [
        {
          "name": "_from",
          "type": "address"
        },
        {
          "name": "_to",
          "type": "address"
        },
        {
          "name": "_tokenId",
          "type": "uint256"
        }
      ],
      "name": "transferFrom",
      "outputs": [],
      "payable": true,
      "stateMutability": "payable",
      "type": "function"
    },
    {
      "constant": false,
      "inputs": [
        {
          "name": "_noise",
          "type": "uint256"
        }
      ],
      "name": "newGanToken",
      "outputs": [],
      "payable": true,
      "stateMutability": "payable",
      "type": "function"
    },
    {
      "constant": true,
      "inputs": [
        {
          "name": "_owner",
          "type": "address"
        }
      ],
      "name": "getOwnerCounts",
      "outputs": [
        {
          "name": "",
          "type": "uint256"
        }
      ],
      "payable": false,
      "stateMutability": "view",
      "type": "function"
    },
    {
      "constant": true,
      "inputs": [],
      "name": "getAllFaceIds",
      "outputs": [
        {
          "name": "",
          "type": "uint256[]"
        }
      ],
      "payable": false,
      "stateMutability": "view",
      "type": "function"
    },
    {
      "constant": false,
      "inputs": [
        {
          "name": "faceId",
          "type": "uint256"
        }
      ],
      "name": "faceNoLongerForSale",
      "outputs": [],
      "payable": true,
      "stateMutability": "payable",
      "type": "function"
    },
    {
      "constant": false,
      "inputs": [
        {
          "name": "faceId",
          "type": "uint256"
        },
        {
          "name": "minSalePriceInWei",
          "type": "uint256"
        }
      ],
      "name": "offerFaceForSale",
      "outputs": [],
      "payable": true,
      "stateMutability": "payable",
      "type": "function"
    },
    {
      "constant": false,
      "inputs": [
        {
          "name": "faceId",
          "type": "uint256"
        },
        {
          "name": "sendTo",
          "type": "address"
        },
        {
          "name": "minSalePriceInWei",
          "type": "uint256"
        }
      ],
      "name": "offerFaceForSaleToAddress",
      "outputs": [],
      "payable": true,
      "stateMutability": "payable",
      "type": "function"
    },
    {
      "constant": true,
      "inputs": [
        {
          "name": "id",
          "type": "uint256"
        }
      ],
      "name": "buyGanToken",
      "outputs": [],
      "payable": false,
      "stateMutability": "view",
      "type": "function"
    },
    {
      "constant": false,
      "inputs": [
        {
          "name": "faceId",
          "type": "uint256"
        }
      ],
      "name": "enterBidForFace",
      "outputs": [],
      "payable": true,
      "stateMutability": "payable",
      "type": "function"
    },
    {
      "constant": false,
      "inputs": [
        {
          "name": "noise",
          "type": "uint256"
        },
        {
          "name": "minPrice",
          "type": "uint256"
        }
      ],
      "name": "acceptBid",
      "outputs": [],
      "payable": true,
      "stateMutability": "payable",
      "type": "function"
    },
    {
      "constant": true,
      "inputs": [
        {
          "name": "_noise",
          "type": "uint256"
        }
      ],
      "name": "isOnSale",
      "outputs": [
        {
          "name": "",
          "type": "bool"
        }
      ],
      "payable": false,
      "stateMutability": "view",
      "type": "function"
    },
    {
      "constant": true,
      "inputs": [
        {
          "name": "_noise",
          "type": "uint256"
        }
      ],
      "name": "getSaleData",
      "outputs": [
        {
          "name": "isForSale",
          "type": "bool"
        },
        {
          "name": "seller",
          "type": "address"
        },
        {
          "name": "minValue",
          "type": "uint256"
        },
        {
          "name": "onlySellTo",
          "type": "address"
        }
      ],
      "payable": false,
      "stateMutability": "view",
      "type": "function"
    },
    {
      "constant": true,
      "inputs": [
        {
          "name": "_noise",
          "type": "uint256"
        }
      ],
      "name": "getBidData",
      "outputs": [
        {
          "name": "hasBid",
          "type": "bool"
        },
        {
          "name": "bidder",
          "type": "address"
        },
        {
          "name": "value",
          "type": "uint256"
        }
      ],
      "payable": false,
      "stateMutability": "view",
      "type": "function"
    },
    {
      "constant": false,
      "inputs": [],
      "name": "withdraw",
      "outputs": [],
      "payable": false,
      "stateMutability": "nonpayable",
      "type": "function"
    }
  ],
  "bytecode": "0x6060604052336000806101000a81548173ffffffffffffffffffffffffffffffffffffffff021916908373ffffffffffffffffffffffffffffffffffffffff160217905550612f25806100536000396000f30060606040526004361061018b576000357c0100000000000000000000000000000000000000000000000000000000900463ffffffff1680630277dfe41461019057806302e9d5e4146101a857806306fdde03146101c9578063084d3a8214610257578063095ea7b3146102ba57806318160ddd146102fc57806323b872dd1461032557806331f7adfe1461037b578063344167a7146103f7578063397a8621146104615780633ccfd60b146104a157806357e45505146104b65780636352211e146105655780636d119f4d146105c857806370a082311461061e57806374abcba11461066b57806381f31b80146106835780638462151c146106a457806386630b7b146107325780638da5cb5b146107da57806395d89b411461082f578063a92c300a146108bd578063ac6ee85214610932578063b7682a811461094a578063b9de5eb41461096d578063c7640153146109ba578063ded113cd146109f1578063ecaecc4214610a3e578063f0f2805f14610aa1578063f2fde38b14610adc578063f3f4370314610b15575b600080fd5b6101a66004808035906020019091905050610b62565b005b6101c76004808035906020019091908035906020019091905050610d3c565b005b34156101d457600080fd5b6101dc6114bf565b6040518080602001828103825283818151815260200191508051906020019080838360005b8381101561021c578082015181840152602081019050610201565b50505050905090810190601f1680156102495780820380516001836020036101000a031916815260200191505b509250505060405180910390f35b341561026257600080fd5b61027860048080359060200190919050506114f8565b604051808273ffffffffffffffffffffffffffffffffffffffff1673ffffffffffffffffffffffffffffffffffffffff16815260200191505060405180910390f35b34156102c557600080fd5b6102fa600480803573ffffffffffffffffffffffffffffffffffffffff1690602001909190803590602001909190505061152b565b005b341561030757600080fd5b61030f6115f0565b6040518082815260200191505060405180910390f35b610379600480803573ffffffffffffffffffffffffffffffffffffffff1690602001909190803573ffffffffffffffffffffffffffffffffffffffff169060200190919080359060200190919050506115fd565b005b341561038657600080fd5b61039c6004808035906020019091905050611ade565b60405180851515151581526020018481526020018373ffffffffffffffffffffffffffffffffffffffff1673ffffffffffffffffffffffffffffffffffffffff16815260200182815260200194505050505060405180910390f35b341561040257600080fd5b61040a611b3b565b6040518080602001828103825283818151815260200191508051906020019060200280838360005b8381101561044d578082015181840152602081019050610432565b505050509050019250505060405180910390f35b61049f600480803590602001909190803573ffffffffffffffffffffffffffffffffffffffff16906020019091908035906020019091905050611bcd565b005b34156104ac57600080fd5b6104b4611de1565b005b34156104c157600080fd5b6104d76004808035906020019091905050611ead565b60405180861515151581526020018581526020018473ffffffffffffffffffffffffffffffffffffffff1673ffffffffffffffffffffffffffffffffffffffff1681526020018381526020018273ffffffffffffffffffffffffffffffffffffffff1673ffffffffffffffffffffffffffffffffffffffff1681526020019550505050505060405180910390f35b341561057057600080fd5b6105866004808035906020019091905050611f30565b604051808273ffffffffffffffffffffffffffffffffffffffff1673ffffffffffffffffffffffffffffffffffffffff16815260200191505060405180910390f35b34156105d357600080fd5b610608600480803573ffffffffffffffffffffffffffffffffffffffff16906020019091908035906020019091905050611f6d565b6040518082815260200191505060405180910390f35b341561062957600080fd5b610655600480803573ffffffffffffffffffffffffffffffffffffffff16906020019091905050611f9e565b6040518082815260200191505060405180910390f35b6106816004808035906020019091905050611fe7565b005b6106a260048080359060200190919080359060200190919050506122bb565b005b34156106af57600080fd5b6106db600480803573ffffffffffffffffffffffffffffffffffffffff169060200190919050506124bc565b6040518080602001828103825283818151815260200191508051906020019060200280838360005b8381101561071e578082015181840152602081019050610703565b505050509050019250505060405180910390f35b341561073d57600080fd5b61075360048080359060200190919050506125fd565b60405180851515151581526020018473ffffffffffffffffffffffffffffffffffffffff1673ffffffffffffffffffffffffffffffffffffffff1681526020018381526020018273ffffffffffffffffffffffffffffffffffffffff1673ffffffffffffffffffffffffffffffffffffffff16815260200194505050505060405180910390f35b34156107e557600080fd5b6107ed61272b565b604051808273ffffffffffffffffffffffffffffffffffffffff1673ffffffffffffffffffffffffffffffffffffffff16815260200191505060405180910390f35b341561083a57600080fd5b610842612750565b6040518080602001828103825283818151815260200191508051906020019080838360005b83811015610882578082015181840152602081019050610867565b50505050905090810190601f1680156108af5780820380516001836020036101000a031916815260200191505b509250505060405180910390f35b34156108c857600080fd5b6108de6004808035906020019091905050612789565b60405180841515151581526020018373ffffffffffffffffffffffffffffffffffffffff1673ffffffffffffffffffffffffffffffffffffffff168152602001828152602001935050505060405180910390f35b6109486004808035906020019091905050612859565b005b341561095557600080fd5b61096b6004808035906020019091905050612a8b565b005b341561097857600080fd5b6109a4600480803573ffffffffffffffffffffffffffffffffffffffff16906020019091905050612ba3565b6040518082815260200191505060405180910390f35b34156109c557600080fd5b6109db6004808035906020019091905050612bbb565b6040518082815260200191505060405180910390f35b34156109fc57600080fd5b610a28600480803573ffffffffffffffffffffffffffffffffffffffff16906020019091905050612bdf565b6040518082815260200191505060405180910390f35b3415610a4957600080fd5b610a5f6004808035906020019091905050612c28565b604051808273ffffffffffffffffffffffffffffffffffffffff1673ffffffffffffffffffffffffffffffffffffffff16815260200191505060405180910390f35b3415610aac57600080fd5b610ac26004808035906020019091905050612c5b565b604051808215151515815260200191505060405180910390f35b3415610ae757600080fd5b610b13600480803573ffffffffffffffffffffffffffffffffffffffff16906020019091905050612c88565b005b3415610b2057600080fd5b610b4c600480803573ffffffffffffffffffffffffffffffffffffffff16906020019091905050612ddd565b6040518082815260200191505060405180910390f35b803373ffffffffffffffffffffffffffffffffffffffff166002600083815260200190815260200160002060009054906101000a900473ffffffffffffffffffffffffffffffffffffffff1673ffffffffffffffffffffffffffffffffffffffff16141515610bd057600080fd5b60a0604051908101604052806000151581526020018381526020013373ffffffffffffffffffffffffffffffffffffffff16815260200160008152602001600073ffffffffffffffffffffffffffffffffffffffff168152506006600084815260200190815260200160002060008201518160000160006101000a81548160ff0219169083151502179055506020820151816001015560408201518160020160006101000a81548173ffffffffffffffffffffffffffffffffffffffff021916908373ffffffffffffffffffffffffffffffffffffffff1602179055506060820151816003015560808201518160040160006101000a81548173ffffffffffffffffffffffffffffffffffffffff021916908373ffffffffffffffffffffffffffffffffffffffff1602179055509050507fece6b76b6c4f5635c755f95795aa038b4708005886c37718e2b421761e8b193f826040518082815260200191505060405180910390a15050565b610d44612df5565b60008060003373ffffffffffffffffffffffffffffffffffffffff166002600088815260200190815260200160002060009054906101000a900473ffffffffffffffffffffffffffffffffffffffff1673ffffffffffffffffffffffffffffffffffffffff16141515610db657600080fd5b60086000878152602001908152602001600020608060405190810160405290816000820160009054906101000a900460ff16151515158152602001600182015481526020016002820160009054906101000a900473ffffffffffffffffffffffffffffffffffffffff1673ffffffffffffffffffffffffffffffffffffffff1673ffffffffffffffffffffffffffffffffffffffff16815260200160038201548152505093506000846060015114151515610e7057600080fd5b848460600151111515610e8257600080fd5b83604001516002600088815260200190815260200160002060006101000a81548173ffffffffffffffffffffffffffffffffffffffff021916908373ffffffffffffffffffffffffffffffffffffffff160217905550600360003373ffffffffffffffffffffffffffffffffffffffff1673ffffffffffffffffffffffffffffffffffffffff168152602001908152602001600020549250600091505b828210156110b657600460003373ffffffffffffffffffffffffffffffffffffffff1673ffffffffffffffffffffffffffffffffffffffff16815260200190815260200160002082815481101515610f7357fe5b9060005260206000209001549050858114156110a957600460003373ffffffffffffffffffffffffffffffffffffffff1673ffffffffffffffffffffffffffffffffffffffff16815260200190815260200160002082815481101515610fd557fe5b90600052602060002090016000905582821415156110a457600460003373ffffffffffffffffffffffffffffffffffffffff1673ffffffffffffffffffffffffffffffffffffffff1681526020019081526020016000206001840381548110151561103c57fe5b906000526020600020900154600460003373ffffffffffffffffffffffffffffffffffffffff1673ffffffffffffffffffffffffffffffffffffffff1681526020019081526020016000208381548110151561109457fe5b9060005260206000209001819055505b6110b6565b8180600101925050610f1f565b600360003373ffffffffffffffffffffffffffffffffffffffff1673ffffffffffffffffffffffffffffffffffffffff168152602001908152602001600020600081548092919060019003919050555060036000856040015173ffffffffffffffffffffffffffffffffffffffff1673ffffffffffffffffffffffffffffffffffffffff1681526020019081526020016000206000815480929190600101919050555060046000856040015173ffffffffffffffffffffffffffffffffffffffff1673ffffffffffffffffffffffffffffffffffffffff16815260200190815260200160002080548060010182816111ae9190612e36565b91600052602060002090016000889091909150555083604001516002600088815260200190815260200160002060006101000a81548173ffffffffffffffffffffffffffffffffffffffff021916908373ffffffffffffffffffffffffffffffffffffffff16021790555060a060405190810160405280600015158152602001878152602001856040015173ffffffffffffffffffffffffffffffffffffffff16815260200160008152602001600073ffffffffffffffffffffffffffffffffffffffff168152506006600088815260200190815260200160002060008201518160000160006101000a81548160ff0219169083151502179055506020820151816001015560408201518160020160006101000a81548173ffffffffffffffffffffffffffffffffffffffff021916908373ffffffffffffffffffffffffffffffffffffffff1602179055506060820151816003015560808201518160040160006101000a81548173ffffffffffffffffffffffffffffffffffffffff021916908373ffffffffffffffffffffffffffffffffffffffff160217905550905050836040015173ffffffffffffffffffffffffffffffffffffffff163373ffffffffffffffffffffffffffffffffffffffff167fddf252ad1be2c89b69c2b068fc378daa952ba7f163c4a11628f55a4df523b3ef60016040518082815260200191505060405180910390a38360600151600560003373ffffffffffffffffffffffffffffffffffffffff1673ffffffffffffffffffffffffffffffffffffffff168152602001908152602001600020600082825401925050819055507e3bbd5c63c4983ef75d19aa8c1b8a62b19bd640e987b736653c65b95effcc70868560600151338760400151604051808581526020018481526020018373ffffffffffffffffffffffffffffffffffffffff1673ffffffffffffffffffffffffffffffffffffffff1681526020018273ffffffffffffffffffffffffffffffffffffffff1673ffffffffffffffffffffffffffffffffffffffff16815260200194505050505060405180910390a1505050505050565b6040805190810160405280600881526020017f47616e546f6b656e00000000000000000000000000000000000000000000000081525081565b60076020528060005260406000206000915054906101000a900473ffffffffffffffffffffffffffffffffffffffff1681565b803373ffffffffffffffffffffffffffffffffffffffff166002600083815260200190815260200160002060009054906101000a900473ffffffffffffffffffffffffffffffffffffffff1673ffffffffffffffffffffffffffffffffffffffff1614151561159957600080fd5b826007600084815260200190815260200160002060006101000a81548173ffffffffffffffffffffffffffffffffffffffff021916908373ffffffffffffffffffffffffffffffffffffffff160217905550505050565b6000600180549050905090565b6000806000808573ffffffffffffffffffffffffffffffffffffffff161415151561162757600080fd5b3073ffffffffffffffffffffffffffffffffffffffff168573ffffffffffffffffffffffffffffffffffffffff161415151561166257600080fd5b3373ffffffffffffffffffffffffffffffffffffffff166007600086815260200190815260200160002060009054906101000a900473ffffffffffffffffffffffffffffffffffffffff1673ffffffffffffffffffffffffffffffffffffffff161415156116cf57600080fd5b8573ffffffffffffffffffffffffffffffffffffffff166002600086815260200190815260200160002060009054906101000a900473ffffffffffffffffffffffffffffffffffffffff1673ffffffffffffffffffffffffffffffffffffffff1614151561173c57600080fd5b846002600086815260200190815260200160002060006101000a81548173ffffffffffffffffffffffffffffffffffffffff021916908373ffffffffffffffffffffffffffffffffffffffff160217905550600360008773ffffffffffffffffffffffffffffffffffffffff1673ffffffffffffffffffffffffffffffffffffffff168152602001908152602001600020549250600091505b8282101561196c57600460008773ffffffffffffffffffffffffffffffffffffffff1673ffffffffffffffffffffffffffffffffffffffff1681526020019081526020016000208281548110151561182957fe5b90600052602060002090015490508381141561195f57600460008773ffffffffffffffffffffffffffffffffffffffff1673ffffffffffffffffffffffffffffffffffffffff1681526020019081526020016000208281548110151561188b57fe5b906000526020600020900160009055828214151561195a57600460008773ffffffffffffffffffffffffffffffffffffffff1673ffffffffffffffffffffffffffffffffffffffff168152602001908152602001600020600184038154811015156118f257fe5b906000526020600020900154600460008873ffffffffffffffffffffffffffffffffffffffff1673ffffffffffffffffffffffffffffffffffffffff1681526020019081526020016000208381548110151561194a57fe5b9060005260206000209001819055505b61196c565b81806001019250506117d5565b600360008773ffffffffffffffffffffffffffffffffffffffff1673ffffffffffffffffffffffffffffffffffffffff1681526020019081526020016000206000815480929190600190039190505550600360008673ffffffffffffffffffffffffffffffffffffffff1673ffffffffffffffffffffffffffffffffffffffff16815260200190815260200160002060008154809291906001019190505550600460008673ffffffffffffffffffffffffffffffffffffffff1673ffffffffffffffffffffffffffffffffffffffff1681526020019081526020016000208054806001018281611a5c9190612e36565b9160005260206000209001600086909190915055508473ffffffffffffffffffffffffffffffffffffffff168673ffffffffffffffffffffffffffffffffffffffff167fddf252ad1be2c89b69c2b068fc378daa952ba7f163c4a11628f55a4df523b3ef866040518082815260200191505060405180910390a3505050505050565b60086020528060005260406000206000915090508060000160009054906101000a900460ff16908060010154908060020160009054906101000a900473ffffffffffffffffffffffffffffffffffffffff16908060030154905084565b611b43612e62565b611b4b612e62565b6000600180549050604051805910611b605750595b90808252806020026020018201604052509150600090505b8151811015611bc557600181815481101515611b9057fe5b9060005260206000209001548282815181101515611baa57fe5b90602001906020020181815250508080600101915050611b78565b819250505090565b3373ffffffffffffffffffffffffffffffffffffffff166002600085815260200190815260200160002060009054906101000a900473ffffffffffffffffffffffffffffffffffffffff1673ffffffffffffffffffffffffffffffffffffffff16141515611c3a57600080fd5b60a0604051908101604052806001151581526020018481526020013373ffffffffffffffffffffffffffffffffffffffff1681526020018281526020018373ffffffffffffffffffffffffffffffffffffffff168152506006600085815260200190815260200160002060008201518160000160006101000a81548160ff0219169083151502179055506020820151816001015560408201518160020160006101000a81548173ffffffffffffffffffffffffffffffffffffffff021916908373ffffffffffffffffffffffffffffffffffffffff1602179055506060820151816003015560808201518160040160006101000a81548173ffffffffffffffffffffffffffffffffffffffff021916908373ffffffffffffffffffffffffffffffffffffffff1602179055509050507f14faa396f4f8bf75809f4afeb7354d31e0d936e2be906cf3da62f62d2041d4ce838284604051808481526020018381526020018273ffffffffffffffffffffffffffffffffffffffff1673ffffffffffffffffffffffffffffffffffffffff168152602001935050505060405180910390a1505050565b6000600560003373ffffffffffffffffffffffffffffffffffffffff1673ffffffffffffffffffffffffffffffffffffffff1681526020019081526020016000205490506000600560003373ffffffffffffffffffffffffffffffffffffffff1673ffffffffffffffffffffffffffffffffffffffff168152602001908152602001600020819055503373ffffffffffffffffffffffffffffffffffffffff166108fc829081150290604051600060405180830381858888f193505050501515611eaa57600080fd5b50565b60066020528060005260406000206000915090508060000160009054906101000a900460ff16908060010154908060020160009054906101000a900473ffffffffffffffffffffffffffffffffffffffff16908060030154908060040160009054906101000a900473ffffffffffffffffffffffffffffffffffffffff16905085565b60006002600083815260200190815260200160002060009054906101000a900473ffffffffffffffffffffffffffffffffffffffff169050919050565b600460205281600052604060002081815481101515611f8857fe5b9060005260206000209001600091509150505481565b6000600360008373ffffffffffffffffffffffffffffffffffffffff1673ffffffffffffffffffffffffffffffffffffffff168152602001908152602001600020549050919050565b611fef612df5565b60086000838152602001908152602001600020608060405190810160405290816000820160009054906101000a900460ff16151515158152602001600182015481526020016002820160009054906101000a900473ffffffffffffffffffffffffffffffffffffffff1673ffffffffffffffffffffffffffffffffffffffff1673ffffffffffffffffffffffffffffffffffffffff16815260200160038201548152505090503373ffffffffffffffffffffffffffffffffffffffff166002600084815260200190815260200160002060009054906101000a900473ffffffffffffffffffffffffffffffffffffffff1673ffffffffffffffffffffffffffffffffffffffff161415151561210357600080fd5b80606001513411151561211557600080fd5b60008160600151111561217857806060015160056000836040015173ffffffffffffffffffffffffffffffffffffffff1673ffffffffffffffffffffffffffffffffffffffff168152602001908152602001600020600082825401925050819055505b6080604051908101604052806001151581526020018381526020013373ffffffffffffffffffffffffffffffffffffffff168152602001348152506008600084815260200190815260200160002060008201518160000160006101000a81548160ff0219169083151502179055506020820151816001015560408201518160020160006101000a81548173ffffffffffffffffffffffffffffffffffffffff021916908373ffffffffffffffffffffffffffffffffffffffff160217905550606082015181600301559050507fdc00baef29ad814d2d1493522533793da86f7fdb6691c1fc436ddf58da3be1fd823433604051808481526020018381526020018273ffffffffffffffffffffffffffffffffffffffff1673ffffffffffffffffffffffffffffffffffffffff168152602001935050505060405180910390a15050565b813373ffffffffffffffffffffffffffffffffffffffff166002600083815260200190815260200160002060009054906101000a900473ffffffffffffffffffffffffffffffffffffffff1673ffffffffffffffffffffffffffffffffffffffff1614151561232957600080fd5b60a0604051908101604052806001151581526020018481526020013373ffffffffffffffffffffffffffffffffffffffff168152602001838152602001600073ffffffffffffffffffffffffffffffffffffffff168152506006600085815260200190815260200160002060008201518160000160006101000a81548160ff0219169083151502179055506020820151816001015560408201518160020160006101000a81548173ffffffffffffffffffffffffffffffffffffffff021916908373ffffffffffffffffffffffffffffffffffffffff1602179055506060820151816003015560808201518160040160006101000a81548173ffffffffffffffffffffffffffffffffffffffff021916908373ffffffffffffffffffffffffffffffffffffffff1602179055509050507f14faa396f4f8bf75809f4afeb7354d31e0d936e2be906cf3da62f62d2041d4ce83836000604051808481526020018381526020018273ffffffffffffffffffffffffffffffffffffffff168152602001935050505060405180910390a1505050565b6124c4612e62565b60006124ce612e62565b6000600360008673ffffffffffffffffffffffffffffffffffffffff1673ffffffffffffffffffffffffffffffffffffffff168152602001908152602001600020549250600083141561254257600060405180591061252a5750595b908082528060200260200182016040525093506125f5565b826040518059106125505750595b90808252806020026020018201604052509150600090505b828110156125f157600460008673ffffffffffffffffffffffffffffffffffffffff1673ffffffffffffffffffffffffffffffffffffffff168152602001908152602001600020818154811015156125bc57fe5b90600052602060002090015482828151811015156125d657fe5b90602001906020020181815250508080600101915050612568565b8193505b505050919050565b60008060008061260b612e76565b6006600087815260200190815260200160002060a060405190810160405290816000820160009054906101000a900460ff16151515158152602001600182015481526020016002820160009054906101000a900473ffffffffffffffffffffffffffffffffffffffff1673ffffffffffffffffffffffffffffffffffffffff1673ffffffffffffffffffffffffffffffffffffffff168152602001600382015481526020016004820160009054906101000a900473ffffffffffffffffffffffffffffffffffffffff1673ffffffffffffffffffffffffffffffffffffffff1673ffffffffffffffffffffffffffffffffffffffff1681525050905080600001519450806040015193508060600151925080608001519150509193509193565b6000809054906101000a900473ffffffffffffffffffffffffffffffffffffffff1681565b6040805190810160405280600281526020017f475400000000000000000000000000000000000000000000000000000000000081525081565b6000806000612796612df5565b60086000868152602001908152602001600020608060405190810160405290816000820160009054906101000a900460ff16151515158152602001600182015481526020016002820160009054906101000a900473ffffffffffffffffffffffffffffffffffffffff1673ffffffffffffffffffffffffffffffffffffffff1673ffffffffffffffffffffffffffffffffffffffff1681526020016003820154815250509050806000015193508060400151925080606001519150509193909250565b600073ffffffffffffffffffffffffffffffffffffffff163373ffffffffffffffffffffffffffffffffffffffff161415151561289557600080fd5b60006002600083815260200190815260200160002060009054906101000a900473ffffffffffffffffffffffffffffffffffffffff1673ffffffffffffffffffffffffffffffffffffffff161415156128ed57600080fd5b600180548060010182816129019190612e36565b916000526020600020900160008390919091505550600460003373ffffffffffffffffffffffffffffffffffffffff1673ffffffffffffffffffffffffffffffffffffffff16815260200190815260200160002080548060010182816129679190612e36565b916000526020600020900160008390919091505550336002600083815260200190815260200160002060006101000a81548173ffffffffffffffffffffffffffffffffffffffff021916908373ffffffffffffffffffffffffffffffffffffffff160217905550600360003373ffffffffffffffffffffffffffffffffffffffff1673ffffffffffffffffffffffffffffffffffffffff168152602001908152602001600020600081548092919060010191905055507ffdba1550c77c74ddc96e27e0ae3f9b226b293aa83712fc7e4a120f9976a96d118133604051808381526020018273ffffffffffffffffffffffffffffffffffffffff1673ffffffffffffffffffffffffffffffffffffffff1681526020019250505060405180910390a150565b612a93612e76565b6006600083815260200190815260200160002060a060405190810160405290816000820160009054906101000a900460ff16151515158152602001600182015481526020016002820160009054906101000a900473ffffffffffffffffffffffffffffffffffffffff1673ffffffffffffffffffffffffffffffffffffffff1673ffffffffffffffffffffffffffffffffffffffff168152602001600382015481526020016004820160009054906101000a900473ffffffffffffffffffffffffffffffffffffffff1673ffffffffffffffffffffffffffffffffffffffff1673ffffffffffffffffffffffffffffffffffffffff1681525050905080600001511515612b9f57600080fd5b5050565b60036020528060005260406000206000915090505481565b600181815481101515612bca57fe5b90600052602060002090016000915090505481565b6000600360008373ffffffffffffffffffffffffffffffffffffffff1673ffffffffffffffffffffffffffffffffffffffff168152602001908152602001600020549050919050565b60026020528060005260406000206000915054906101000a900473ffffffffffffffffffffffffffffffffffffffff1681565b60006006600083815260200190815260200160002060000160009054906101000a900460ff169050919050565b6000809054906101000a900473ffffffffffffffffffffffffffffffffffffffff1673ffffffffffffffffffffffffffffffffffffffff163373ffffffffffffffffffffffffffffffffffffffff16141515612ce357600080fd5b600073ffffffffffffffffffffffffffffffffffffffff168173ffffffffffffffffffffffffffffffffffffffff1614151515612d1f57600080fd5b8073ffffffffffffffffffffffffffffffffffffffff166000809054906101000a900473ffffffffffffffffffffffffffffffffffffffff1673ffffffffffffffffffffffffffffffffffffffff167f8be0079c531659141344cd1fd0a4f28419497f9722a3daafe3b4186f6b6457e060405160405180910390a3806000806101000a81548173ffffffffffffffffffffffffffffffffffffffff021916908373ffffffffffffffffffffffffffffffffffffffff16021790555050565b60056020528060005260406000206000915090505481565b60806040519081016040528060001515815260200160008152602001600073ffffffffffffffffffffffffffffffffffffffff168152602001600081525090565b815481835581811511612e5d57818360005260206000209182019101612e5c9190612ed4565b5b505050565b602060405190810160405280600081525090565b60a06040519081016040528060001515815260200160008152602001600073ffffffffffffffffffffffffffffffffffffffff16815260200160008152602001600073ffffffffffffffffffffffffffffffffffffffff1681525090565b612ef691905b80821115612ef2576000816000905550600101612eda565b5090565b905600a165627a7a72305820395acb2f2f7313b3a0a8e31374f51b633bfba72648d070cf98bfc9cebbfb143c0029",
  "source": "pragma solidity ^0.4.17;\n\nimport './Ownable.sol';\n\n/// @title Interface for contracts conforming to ERC-721: Non-Fungible Tokens\n/// @author Dieter Shirley <dete@axiomzen.co> (https://github.com/dete)\ncontract ERC721 {\n    // Required methods\n    function totalSupply() public view returns (uint256 total);\n    function balanceOf(address _owner) public view returns (uint256 balance);\n    function ownerOf(uint256 _tokenId) external view returns (address owner);\n    function approve(address _to, uint256 _tokenId) external;\n    function transfer(address _to, uint256 _tokenId) external;\n    function transferFrom(address _from, address _to, uint256 _tokenId) external;\n\n    // Events\n    event Transfer(address from, address to, uint256 tokenId);\n    event Approval(address owner, address approved, uint256 tokenId);\n\n    // Optional\n    // function name() public view returns (string name);\n    // function symbol() public view returns (string symbol);\n    // function tokensOfOwner(address _owner) external view returns (uint256[] tokenIds);\n    // function tokenMetadata(uint256 _tokenId, string _preferredTransport) public view returns (string infoUrl);\n\n    // ERC-165 Compatibility (https://github.com/ethereum/EIPs/issues/165)\n    // function supportsInterface(bytes4 _interfaceID) external view returns (bool);\n}\n\n\n\ncontract AnimeFace is Ownable {\n\n  /// @notice Name and symbol of the non fungible token, as defined in ERC721.\n  string public constant name = \"GanToken\";\n  string public constant symbol = \"GT\";\n\n  modifier owns(uint256 imageId) {\n    require(face_mapping[imageId] == msg.sender);\n    _;\n  }\n\n  struct Offer {\n    bool isForSale;\n    uint256 faceId;\n    address seller;\n    uint minValue;          // in ether\n    address onlySellTo;     // specify to sell only to a specific person\n  }\n\n  struct Bid {\n    bool hasBid;\n    uint256 faceId;\n    address bidder;\n    uint value;\n  }\n\n  /// @dev list of all owned face ids\n  uint256[] public faceIds;\n\n  /// @dev a mpping for all the faces\n  mapping(uint256 => address) public face_mapping;\n\n  /// @dev mapping to keep owner balances\n  mapping(address => uint256) public ownershipCounts;\n\n  /// @dev mapping to owners to an array of faces that they own\n  mapping(address => uint256[]) public ownerBank;\n\n  /// @dev a list of withdraws \n  mapping(address => uint256) public pendingWithdrawals;\n\n  mapping(uint256 => Offer) public faceOfferedForSale;\n\n  mapping(uint256 => address) public ganIndexToApproved;\n  ///\n  mapping(uint256 => Bid) public faceBids;\n\n  event Transfer(address indexed from, address indexed to, uint256 value);\n  event BidForFaceOffered(uint256 faceId, uint256 value, address sender);\n  // event FaceTransfer()\n  // enent FaceBidWithdrawn()\n  event NewFace(uint256 faceId, address claimer);\n  event FaceBought(uint256 faceId, uint256 value, address sender, address bidder);\n  event FaceOfferedForSale(uint256 faceId, uint256 minSalePriceInWei, address onlySellTo);\n  event FaceNoLongerForSale(uint256 faceId);\n  event Approval(address owner, address approved, uint256 tokenId);\n  /// @dev Required for ERC-721 compliance.\n  function totalSupply() public view returns (uint256 total) {\n    return faceIds.length;\n  }\n\n  /// @dev Required for ERC-721 compliance.\n  function balanceOf(address _owner) public view returns (uint256 balance) {\n    balance = ownershipCounts[_owner];\n  }\n\n  /// @dev Required for ERC-721 compliance.\n  function ownerOf(uint256 _tokenId) external view returns (address owner) {\n    owner = face_mapping[_tokenId];\n  }\n\n  /// @dev returns all owners' FaceIds\n  /// @dev Required for ERC-721 compliance.\n  function tokensOfOwner(address _owner) external view returns (uint256[]) {\n    uint256 tokenCount = ownershipCounts[_owner];\n\n    if (tokenCount == 0) {\n      return new uint256[](0);\n    }\n\n    uint256[] memory result = new uint256[](tokenCount);\n\n    for (uint256 i = 0; i < tokenCount; i++) {\n      result[i] = ownerBank[_owner][i];\n    }\n\n    return result;\n  }\n\n  /// @notice Grant another address the right to transfer a specific face via\n  ///  transferFrom(). This is the preferred flow for transfering NFTs to contracts.\n  /// @param _to The address to be granted transfer approval. Pass address(0) to\n  ///  clear all approvals.\n  /// @param _tokenId The ID of the Kitty that can be transferred if this call succeeds.\n  /// @dev Required for ERC-721 compliance.\n  function approve(address _to, uint256 _tokenId) external owns(_tokenId) {\n      // Register the approval (replacing any previous approval).\n      ganIndexToApproved[_tokenId] = _to;\n\n      // Emit approval event.\n      // Approval(msg.sender, _to, _tokenId);\n  }\n\n  // \n  function transferFrom(address _from, address _to, uint256 _tokenId) external payable {\n    require(_to != 0x0);\n    require(_to != address(this));\n    require(ganIndexToApproved[_tokenId] == msg.sender);\n    require(face_mapping[_tokenId] == _from);\n\n    face_mapping[_tokenId] = _to;\n\n    uint256 tokenCount = ownershipCounts[_from];\n    // remove from ownerBank and replace the deleted face id\n    for (uint256 i = 0; i < tokenCount; i++) {\n      uint256 id = ownerBank[_from][i];\n      if (id == _tokenId) {\n        delete ownerBank[_from][i];\n        if (i != tokenCount) {\n          ownerBank[_from][i] = ownerBank[_from][tokenCount - 1];\n        }\n        break;\n      }\n    }\n\n    ownershipCounts[_from]--;\n    ownershipCounts[_to]++;\n    ownerBank[_to].push(_tokenId);\n\n    Transfer(_from, _to, _tokenId);\n\n  }\n\n  function newGanToken(uint256 _noise) external payable {\n    require(msg.sender != address(0));\n    require(face_mapping[_noise] == 0x0);\n\n    faceIds.push(_noise);\n    ownerBank[msg.sender].push(_noise);\n    face_mapping[_noise] = msg.sender;\n    ownershipCounts[msg.sender]++;\n\n    NewFace(_noise, msg.sender);\n  }\n\n  // @dev returns the counts for the owner\n  function getOwnerCounts(address _owner) external view returns (uint256) {\n    return ownershipCounts[_owner];\n  }\n\n  /// @dev creates a list of all the faceids\n  function getAllFaceIds() external view returns (uint256[]) {\n    uint256[] memory result = new uint256[](faceIds.length);\n    for (uint i = 0; i < result.length; i++) {\n      result[i] = faceIds[i];\n    }\n\n    return result;\n  }\n\n  function faceNoLongerForSale(uint256 faceId) public payable owns(faceId) {\n    faceOfferedForSale[faceId] = Offer(false, faceId, msg.sender, 0, 0x0);\n\n    FaceNoLongerForSale(faceId);\n  }\n\n  function offerFaceForSale(uint faceId, uint256 minSalePriceInWei) external payable owns(faceId) {\n    faceOfferedForSale[faceId] = Offer(true, faceId, msg.sender, minSalePriceInWei, 0x0);\n\n    FaceOfferedForSale(faceId, minSalePriceInWei, 0x0);\n  }\n\n  function offerFaceForSaleToAddress(uint faceId, address sendTo, uint256 minSalePriceInWei) external payable {\n    require(face_mapping[faceId] == msg.sender);\n    faceOfferedForSale[faceId] = Offer(true, faceId, msg.sender, minSalePriceInWei, sendTo);\n\n    FaceOfferedForSale(faceId, minSalePriceInWei, sendTo);\n  }\n\n  function buyGanToken(uint256 id) external view {\n    // faceNoLongerForSale(id);\n    Offer memory offer = faceOfferedForSale[id];\n    require(offer.isForSale);\n    // require(offer.onlySellTo == msg.sender && offer.onlySellTo != 0x0);\n    // require(msg.value > offer.minValue);\n    // require(face_mapping[id] == offer.seller);\n\n\n    // uint256 tokenCount = ownershipCounts[offer.seller];\n    // // remove from ownerBank and replace the deleted face id\n    // for (uint256 i = 0; i < tokenCount; i++) {\n    //   uint256 ownedId = ownerBank[offer.seller][i];\n    //   if (id == ownedId) {\n    //     delete ownerBank[offer.seller][i];\n    //     if (i != tokenCount) {\n    //       ownerBank[offer.seller][i] = ownerBank[offer.seller][tokenCount - 1];\n    //     }\n    //     break;\n    //   }\n    // }\n\n    // ownershipCounts[offer.seller]--;\n    // ownershipCounts[msg.sender]++;\n    // ownerBank[msg.sender].push(id);\n\n    // face_mapping[id] = msg.sender;\n\n    // Transfer(offer.seller, msg.sender, 1);\n  }\n\n  function enterBidForFace(uint256 faceId) external payable {\n    Bid memory existing = faceBids[faceId];\n    require(face_mapping[faceId] != msg.sender);\n    require(msg.value > existing.value);\n    if (existing.value > 0) {\n      // Refund the failing bid\n      pendingWithdrawals[existing.bidder] += existing.value;\n    }\n\n    faceBids[faceId] = Bid(true, faceId, msg.sender, msg.value);\n    BidForFaceOffered(faceId, msg.value, msg.sender);\n  }\n\n  function acceptBid(uint256 noise, uint256 minPrice) external payable {\n    require(face_mapping[noise] == msg.sender);\n    Bid memory bid = faceBids[noise];\n    require(bid.value != 0);\n    require(bid.value > minPrice);\n\n    face_mapping[noise] = bid.bidder;\n\n    uint256 tokenCount = ownershipCounts[msg.sender];\n    // remove from ownerBank and replace the deleted face id\n    for (uint256 i = 0; i < tokenCount; i++) {\n      uint256 id = ownerBank[msg.sender][i];\n      if (id == noise) {\n        delete ownerBank[msg.sender][i];\n        if (i != tokenCount) {\n          ownerBank[msg.sender][i] = ownerBank[msg.sender][tokenCount - 1];\n        }\n        break;\n      }\n    }\n\n    ownershipCounts[msg.sender]--;\n    ownershipCounts[bid.bidder]++;\n    ownerBank[bid.bidder].push(noise);\n\n    face_mapping[noise] = bid.bidder;\n\n    faceOfferedForSale[noise] = Offer(false, noise, bid.bidder, 0, 0x0);\n    Transfer(msg.sender, bid.bidder, 1);\n    pendingWithdrawals[msg.sender] += bid.value;\n    FaceBought(noise, bid.value, msg.sender, bid.bidder);\n  }\n\n  function isOnSale(uint256 _noise) external view returns (bool) {\n    return faceOfferedForSale[_noise].isForSale;\n  }\n\n  function getSaleData(uint256 _noise) public view returns (bool isForSale, address seller, uint minValue, address onlySellTo) {\n    Offer memory offer = faceOfferedForSale[_noise];\n    isForSale = offer.isForSale;\n    seller = offer.seller;\n    minValue = offer.minValue;\n    onlySellTo = offer.onlySellTo;\n  }\n\n  function getBidData(uint256 _noise) view public returns (bool hasBid, address bidder, uint value) {\n    Bid memory bid = faceBids[_noise];\n    hasBid = bid.hasBid;\n    bidder = bid.bidder;\n    value = bid.value;\n  }\n\n  // function withdrawBidForPunk(uint punkIndex) {\n  //     if (punkIndex >= 10000) throw;\n  //     if (!allPunksAssigned) throw;                \n  //     if (punkIndexToAddress[punkIndex] == 0x0) throw;\n  //     if (punkIndexToAddress[punkIndex] == msg.sender) throw;\n  //     Bid bid = punkBids[punkIndex];\n  //     if (bid.bidder != msg.sender) throw;\n  //     PunkBidWithdrawn(punkIndex, bid.value, msg.sender);\n  //     uint amount = bid.value;\n  //     punkBids[punkIndex] = Bid(false, punkIndex, 0x0, 0);\n  //     // Refund the bid money\n  //     msg.sender.transfer(amount);\n  // }\n\n  function withdraw() external {\n    uint256 amount = pendingWithdrawals[msg.sender];\n    // Remember to zero the pending refund before\n    // sending to prevent re-entrancy attacks\n    pendingWithdrawals[msg.sender] = 0;\n    msg.sender.transfer(amount);\n  }\n\n}\n\n",
  "sourcePath": "/Users/colin/Projects/tutorial/anime-face-contracts/contracts/AnimeFace.sol",
  "compiler": {
    "name": "solc",
    "version": "0.4.19+commit.c4cbbb05.Emscripten.clang"
  },
  "schemaVersion": "2.0.0",
  "updatedAt": "2018-03-29T02:45:08.488Z"
}