{
  "contractName": "GanTokenMain",
  "abi": [
    {
      "constant": true,
      "inputs": [
        {
          "name": "interfaceID",
          "type": "bytes4"
        }
      ],
      "name": "supportsInterface",
      "outputs": [
        {
          "name": "",
          "type": "bool"
        }
      ],
      "payable": false,
      "stateMutability": "view",
      "type": "function"
    },
    {
      "constant": true,
      "inputs": [
        {
          "name": "_tokenId",
          "type": "uint256"
        },
        {
          "name": "_preferredTransport",
          "type": "string"
        }
      ],
      "name": "tokenMetadata",
      "outputs": [
        {
          "name": "infoUrl",
          "type": "string"
        }
      ],
      "payable": false,
      "stateMutability": "view",
      "type": "function"
    },
    {
      "constant": true,
      "inputs": [],
      "name": "name",
      "outputs": [
        {
          "name": "",
          "type": "string"
        }
      ],
      "payable": false,
      "stateMutability": "pure",
      "type": "function"
    },
    {
      "constant": true,
      "inputs": [
        {
          "name": "_tokenId",
          "type": "uint256"
        }
      ],
      "name": "getApproved",
      "outputs": [
        {
          "name": "",
          "type": "address"
        }
      ],
      "payable": false,
      "stateMutability": "view",
      "type": "function"
    },
    {
      "constant": false,
      "inputs": [
        {
          "name": "_to",
          "type": "address"
        },
        {
          "name": "_tokenId",
          "type": "uint256"
        }
      ],
      "name": "approve",
      "outputs": [],
      "payable": true,
      "stateMutability": "payable",
      "type": "function"
    },
    {
      "constant": true,
      "inputs": [],
      "name": "claimPrice",
      "outputs": [
        {
          "name": "",
          "type": "uint256"
        }
      ],
      "payable": false,
      "stateMutability": "view",
      "type": "function"
    },
    {
      "constant": true,
      "inputs": [],
      "name": "totalSupply",
      "outputs": [
        {
          "name": "",
          "type": "uint256"
        }
      ],
      "payable": false,
      "stateMutability": "view",
      "type": "function"
    },
    {
      "constant": false,
      "inputs": [
        {
          "name": "_from",
          "type": "address"
        },
        {
          "name": "_to",
          "type": "address"
        },
        {
          "name": "_tokenId",
          "type": "uint256"
        }
      ],
      "name": "transferFrom",
      "outputs": [],
      "payable": true,
      "stateMutability": "payable",
      "type": "function"
    },
    {
      "constant": true,
      "inputs": [
        {
          "name": "",
          "type": "uint256"
        }
      ],
      "name": "tokenBids",
      "outputs": [
        {
          "name": "hasBid",
          "type": "bool"
        },
        {
          "name": "tokenId",
          "type": "uint256"
        },
        {
          "name": "bidder",
          "type": "address"
        },
        {
          "name": "value",
          "type": "uint256"
        }
      ],
      "payable": false,
      "stateMutability": "view",
      "type": "function"
    },
    {
      "constant": true,
      "inputs": [
        {
          "name": "_owner",
          "type": "address"
        },
        {
          "name": "_index",
          "type": "uint256"
        }
      ],
      "name": "tokenOfOwnerByIndex",
      "outputs": [
        {
          "name": "_tokenId",
          "type": "uint256"
        }
      ],
      "payable": false,
      "stateMutability": "view",
      "type": "function"
    },
    {
      "constant": true,
      "inputs": [
        {
          "name": "",
          "type": "uint256"
        }
      ],
      "name": "ganTokenOfferedForSale",
      "outputs": [
        {
          "name": "isForSale",
          "type": "bool"
        },
        {
          "name": "tokenId",
          "type": "uint256"
        },
        {
          "name": "seller",
          "type": "address"
        },
        {
          "name": "value",
          "type": "uint256"
        },
        {
          "name": "onlySellTo",
          "type": "address"
        }
      ],
      "payable": false,
      "stateMutability": "view",
      "type": "function"
    },
    {
      "constant": false,
      "inputs": [
        {
          "name": "_from",
          "type": "address"
        },
        {
          "name": "_to",
          "type": "address"
        },
        {
          "name": "_tokenId",
          "type": "uint256"
        }
      ],
      "name": "safeTransferFrom",
      "outputs": [],
      "payable": true,
      "stateMutability": "payable",
      "type": "function"
    },
    {
      "constant": true,
      "inputs": [
        {
          "name": "_index",
          "type": "uint256"
        }
      ],
      "name": "tokenByIndex",
      "outputs": [
        {
          "name": "",
          "type": "uint256"
        }
      ],
      "payable": false,
      "stateMutability": "view",
      "type": "function"
    },
    {
      "constant": false,
      "inputs": [
        {
          "name": "price",
          "type": "uint256"
        }
      ],
      "name": "setClaimPrice",
      "outputs": [],
      "payable": true,
      "stateMutability": "payable",
      "type": "function"
    },
    {
      "constant": true,
      "inputs": [
        {
          "name": "_tokenId",
          "type": "uint256"
        }
      ],
      "name": "ownerOf",
      "outputs": [
        {
          "name": "owner",
          "type": "address"
        }
      ],
      "payable": false,
      "stateMutability": "view",
      "type": "function"
    },
    {
      "constant": true,
      "inputs": [
        {
          "name": "",
          "type": "address"
        },
        {
          "name": "",
          "type": "uint256"
        }
      ],
      "name": "ownerBank",
      "outputs": [
        {
          "name": "",
          "type": "uint256"
        }
      ],
      "payable": false,
      "stateMutability": "view",
      "type": "function"
    },
    {
      "constant": true,
      "inputs": [
        {
          "name": "",
          "type": "uint256"
        }
      ],
      "name": "tokenIdToOwner",
      "outputs": [
        {
          "name": "",
          "type": "address"
        }
      ],
      "payable": false,
      "stateMutability": "view",
      "type": "function"
    },
    {
      "constant": false,
      "inputs": [
        {
          "name": "max",
          "type": "uint256"
        }
      ],
      "name": "setMaxSupply",
      "outputs": [],
      "payable": true,
      "stateMutability": "payable",
      "type": "function"
    },
    {
      "constant": true,
      "inputs": [
        {
          "name": "_owner",
          "type": "address"
        }
      ],
      "name": "balanceOf",
      "outputs": [
        {
          "name": "balance",
          "type": "uint256"
        }
      ],
      "payable": false,
      "stateMutability": "view",
      "type": "function"
    },
    {
      "constant": true,
      "inputs": [
        {
          "name": "_owner",
          "type": "address"
        }
      ],
      "name": "tokensOfOwner",
      "outputs": [
        {
          "name": "",
          "type": "uint256[]"
        }
      ],
      "payable": false,
      "stateMutability": "view",
      "type": "function"
    },
    {
      "constant": true,
      "inputs": [],
      "name": "owner",
      "outputs": [
        {
          "name": "",
          "type": "address"
        }
      ],
      "payable": false,
      "stateMutability": "view",
      "type": "function"
    },
    {
      "constant": true,
      "inputs": [],
      "name": "symbol",
      "outputs": [
        {
          "name": "",
          "type": "string"
        }
      ],
      "payable": false,
      "stateMutability": "pure",
      "type": "function"
    },
    {
      "constant": false,
      "inputs": [
        {
          "name": "_operator",
          "type": "address"
        },
        {
          "name": "_approved",
          "type": "bool"
        }
      ],
      "name": "setApprovalForAll",
      "outputs": [],
      "payable": false,
      "stateMutability": "nonpayable",
      "type": "function"
    },
    {
      "constant": false,
      "inputs": [
        {
          "name": "_noise",
          "type": "uint256"
        }
      ],
      "name": "newGanToken",
      "outputs": [],
      "payable": true,
      "stateMutability": "payable",
      "type": "function"
    },
    {
      "constant": true,
      "inputs": [
        {
          "name": "",
          "type": "uint256"
        }
      ],
      "name": "tokenApprovals",
      "outputs": [
        {
          "name": "",
          "type": "address"
        }
      ],
      "payable": false,
      "stateMutability": "view",
      "type": "function"
    },
    {
      "constant": false,
      "inputs": [
        {
          "name": "_from",
          "type": "address"
        },
        {
          "name": "_to",
          "type": "address"
        },
        {
          "name": "_tokenId",
          "type": "uint256"
        },
        {
          "name": "data",
          "type": "bytes"
        }
      ],
      "name": "safeTransferFrom",
      "outputs": [],
      "payable": true,
      "stateMutability": "payable",
      "type": "function"
    },
    {
      "constant": true,
      "inputs": [
        {
          "name": "",
          "type": "address"
        }
      ],
      "name": "ownershipCounts",
      "outputs": [
        {
          "name": "",
          "type": "uint256"
        }
      ],
      "payable": false,
      "stateMutability": "view",
      "type": "function"
    },
    {
      "constant": true,
      "inputs": [],
      "name": "erc721Metadata",
      "outputs": [
        {
          "name": "",
          "type": "address"
        }
      ],
      "payable": false,
      "stateMutability": "view",
      "type": "function"
    },
    {
      "constant": true,
      "inputs": [],
      "name": "getAllTokenIds",
      "outputs": [
        {
          "name": "",
          "type": "uint256[]"
        }
      ],
      "payable": false,
      "stateMutability": "view",
      "type": "function"
    },
    {
      "constant": true,
      "inputs": [
        {
          "name": "",
          "type": "uint256"
        }
      ],
      "name": "tokenIds",
      "outputs": [
        {
          "name": "",
          "type": "uint256"
        }
      ],
      "payable": false,
      "stateMutability": "view",
      "type": "function"
    },
    {
      "constant": true,
      "inputs": [],
      "name": "maxSupply",
      "outputs": [
        {
          "name": "",
          "type": "uint256"
        }
      ],
      "payable": false,
      "stateMutability": "view",
      "type": "function"
    },
    {
      "constant": false,
      "inputs": [
        {
          "name": "_contractAddress",
          "type": "address"
        }
      ],
      "name": "setMetadataAddress",
      "outputs": [],
      "payable": false,
      "stateMutability": "nonpayable",
      "type": "function"
    },
    {
      "constant": true,
      "inputs": [
        {
          "name": "_owner",
          "type": "address"
        },
        {
          "name": "_operator",
          "type": "address"
        }
      ],
      "name": "isApprovedForAll",
      "outputs": [
        {
          "name": "",
          "type": "bool"
        }
      ],
      "payable": false,
      "stateMutability": "view",
      "type": "function"
    },
    {
      "constant": false,
      "inputs": [
        {
          "name": "newOwner",
          "type": "address"
        }
      ],
      "name": "transferOwnership",
      "outputs": [],
      "payable": false,
      "stateMutability": "nonpayable",
      "type": "function"
    },
    {
      "constant": true,
      "inputs": [
        {
          "name": "",
          "type": "address"
        }
      ],
      "name": "pendingWithdrawals",
      "outputs": [
        {
          "name": "",
          "type": "uint256"
        }
      ],
      "payable": false,
      "stateMutability": "view",
      "type": "function"
    },
    {
      "anonymous": false,
      "inputs": [
        {
          "indexed": false,
          "name": "tokenId",
          "type": "uint256"
        },
        {
          "indexed": false,
          "name": "value",
          "type": "uint256"
        },
        {
          "indexed": false,
          "name": "sender",
          "type": "address"
        }
      ],
      "name": "BidForGanTokenOffered",
      "type": "event"
    },
    {
      "anonymous": false,
      "inputs": [
        {
          "indexed": false,
          "name": "tokenId",
          "type": "uint256"
        },
        {
          "indexed": false,
          "name": "value",
          "type": "uint256"
        },
        {
          "indexed": false,
          "name": "bidder",
          "type": "address"
        }
      ],
      "name": "BidWithdrawn",
      "type": "event"
    },
    {
      "anonymous": false,
      "inputs": [
        {
          "indexed": false,
          "name": "tokenId",
          "type": "uint256"
        },
        {
          "indexed": false,
          "name": "minSalePriceInWei",
          "type": "uint256"
        },
        {
          "indexed": false,
          "name": "onlySellTo",
          "type": "address"
        }
      ],
      "name": "GanTokenOfferedForSale",
      "type": "event"
    },
    {
      "anonymous": false,
      "inputs": [
        {
          "indexed": false,
          "name": "tokenId",
          "type": "uint256"
        }
      ],
      "name": "GanTokenNoLongerForSale",
      "type": "event"
    },
    {
      "anonymous": false,
      "inputs": [
        {
          "indexed": true,
          "name": "_from",
          "type": "address"
        },
        {
          "indexed": true,
          "name": "_to",
          "type": "address"
        },
        {
          "indexed": false,
          "name": "_value",
          "type": "uint256"
        }
      ],
      "name": "Transfer",
      "type": "event"
    },
    {
      "anonymous": false,
      "inputs": [
        {
          "indexed": true,
          "name": "_owner",
          "type": "address"
        },
        {
          "indexed": true,
          "name": "_approved",
          "type": "address"
        },
        {
          "indexed": false,
          "name": "_tokenId",
          "type": "uint256"
        }
      ],
      "name": "Approval",
      "type": "event"
    },
    {
      "anonymous": false,
      "inputs": [
        {
          "indexed": true,
          "name": "_owner",
          "type": "address"
        },
        {
          "indexed": true,
          "name": "_operator",
          "type": "address"
        },
        {
          "indexed": false,
          "name": "_approved",
          "type": "bool"
        }
      ],
      "name": "ApprovalForAll",
      "type": "event"
    },
    {
      "anonymous": false,
      "inputs": [
        {
          "indexed": true,
          "name": "previousOwner",
          "type": "address"
        },
        {
          "indexed": true,
          "name": "newOwner",
          "type": "address"
        }
      ],
      "name": "OwnershipTransferred",
      "type": "event"
    },
    {
      "constant": false,
      "inputs": [
        {
          "name": "tokenId",
          "type": "uint256"
        }
      ],
      "name": "ganTokenNoLongerForSale",
      "outputs": [],
      "payable": true,
      "stateMutability": "payable",
      "type": "function"
    },
    {
      "constant": false,
      "inputs": [
        {
          "name": "tokenId",
          "type": "uint256"
        },
        {
          "name": "minSalePriceInWei",
          "type": "uint256"
        }
      ],
      "name": "offerGanTokenForSale",
      "outputs": [],
      "payable": true,
      "stateMutability": "payable",
      "type": "function"
    },
    {
      "constant": false,
      "inputs": [
        {
          "name": "tokenId",
          "type": "uint256"
        },
        {
          "name": "sendTo",
          "type": "address"
        },
        {
          "name": "minSalePriceInWei",
          "type": "uint256"
        }
      ],
      "name": "offerGanTokenForSaleToAddress",
      "outputs": [],
      "payable": true,
      "stateMutability": "payable",
      "type": "function"
    },
    {
      "constant": false,
      "inputs": [
        {
          "name": "id",
          "type": "uint256"
        }
      ],
      "name": "buyGanToken",
      "outputs": [],
      "payable": true,
      "stateMutability": "payable",
      "type": "function"
    },
    {
      "constant": false,
      "inputs": [
        {
          "name": "tokenId",
          "type": "uint256"
        }
      ],
      "name": "enterBidForGanToken",
      "outputs": [],
      "payable": true,
      "stateMutability": "payable",
      "type": "function"
    },
    {
      "constant": false,
      "inputs": [
        {
          "name": "tokenId",
          "type": "uint256"
        },
        {
          "name": "price",
          "type": "uint256"
        }
      ],
      "name": "acceptBid",
      "outputs": [],
      "payable": true,
      "stateMutability": "payable",
      "type": "function"
    },
    {
      "constant": true,
      "inputs": [
        {
          "name": "tokenId",
          "type": "uint256"
        }
      ],
      "name": "isOnSale",
      "outputs": [
        {
          "name": "",
          "type": "bool"
        }
      ],
      "payable": false,
      "stateMutability": "view",
      "type": "function"
    },
    {
      "constant": true,
      "inputs": [
        {
          "name": "tokenId",
          "type": "uint256"
        }
      ],
      "name": "getSaleData",
      "outputs": [
        {
          "name": "isForSale",
          "type": "bool"
        },
        {
          "name": "seller",
          "type": "address"
        },
        {
          "name": "value",
          "type": "uint256"
        },
        {
          "name": "onlySellTo",
          "type": "address"
        }
      ],
      "payable": false,
      "stateMutability": "view",
      "type": "function"
    },
    {
      "constant": true,
      "inputs": [
        {
          "name": "tokenId",
          "type": "uint256"
        }
      ],
      "name": "getBidData",
      "outputs": [
        {
          "name": "hasBid",
          "type": "bool"
        },
        {
          "name": "bidder",
          "type": "address"
        },
        {
          "name": "value",
          "type": "uint256"
        }
      ],
      "payable": false,
      "stateMutability": "view",
      "type": "function"
    },
    {
      "constant": false,
      "inputs": [
        {
          "name": "tokenId",
          "type": "uint256"
        }
      ],
      "name": "withdrawBid",
      "outputs": [],
      "payable": true,
      "stateMutability": "payable",
      "type": "function"
    },
    {
      "constant": false,
      "inputs": [],
      "name": "withdraw",
      "outputs": [],
      "payable": false,
      "stateMutability": "nonpayable",
      "type": "function"
    }
  ],
  "bytecode": "0x6060604052600060025561012c60035560016000806301ffc9a77c0100000000000000000000000000000000000000000000000000000000027bffffffffffffffffffffffffffffffffffffffffffffffffffffffff1916815260200190815260200160002060006101000a81548160ff02191690831515021790555033600160006101000a81548173ffffffffffffffffffffffffffffffffffffffff021916908373ffffffffffffffffffffffffffffffffffffffff16021790555060016000806380ac58cd7c0100000000000000000000000000000000000000000000000000000000027bffffffffffffffffffffffffffffffffffffffffffffffffffffffff1916815260200190815260200160002060006101000a81548160ff0219169083151502179055506001600080635b5e139f7c0100000000000000000000000000000000000000000000000000000000027bffffffffffffffffffffffffffffffffffffffffffffffffffffffff1916815260200190815260200160002060006101000a81548160ff021916908315150217905550600160008063780e9d637c0100000000000000000000000000000000000000000000000000000000027bffffffffffffffffffffffffffffffffffffffffffffffffffffffff1916815260200190815260200160002060006101000a81548160ff0219169083151502179055506001600080638153916a7c0100000000000000000000000000000000000000000000000000000000027bffffffffffffffffffffffffffffffffffffffffffffffffffffffff1916815260200190815260200160002060006101000a81548160ff02191690831515021790555061427b806102806000396000f300606060405260043610610230576000357c0100000000000000000000000000000000000000000000000000000000900463ffffffff16806301ffc9a71461023557806302e9d5e41461028f5780630560ff44146102b057806306fdde0314610360578063081812fc146103ee578063095ea7b3146104515780630eaaf4c81461048857806315d655c9146104a057806318160ddd146104c957806323b872dd146104f25780632d47f0ce146105485780632f745c59146105c457806330c4168c1461061a5780633ccfd60b146106c957806342842e0e146106de5780634f6ccce71461073457806351f468c01461076b5780636026c151146107835780636352211e146107a45780636d119f4d146108075780636e9e48ef1461085d5780636f8b44b0146108c057806370a08231146108d857806379c5ba97146109255780638462151c1461093d57806386630b7b146109cb5780638da5cb5b14610a7357806395d89b4114610ac8578063a22cb46514610b56578063a92c300a14610b9a578063ac6ee85214610c0f578063acdeb5b914610c27578063af8ec44c14610c8a578063b176661714610cca578063b7682a8114610ce2578063b88d4fde14610cfa578063b9de5eb414610d93578063bc4006f514610de0578063bdbed72214610e35578063d58778d614610e9f578063d5abeb0114610ed6578063e17b25af14610eff578063e985e9c514610f38578063f0f2805f14610fa8578063f2fde38b14610fe3578063f3f437031461101c575b600080fd5b341561024057600080fd5b61027560048080357bffffffffffffffffffffffffffffffffffffffffffffffffffffffff1916906020019091905050611069565b604051808215151515815260200191505060405180910390f35b6102ae600480803590602001909190803590602001909190505061111e565b005b34156102bb57600080fd5b6102e560048080359060200190919080359060200190820180359060200191909192905050611392565b6040518080602001828103825283818151815260200191508051906020019080838360005b8381101561032557808201518184015260208101905061030a565b50505050905090810190601f1680156103525780820380516001836020036101000a031916815260200191505b509250505060405180910390f35b341561036b57600080fd5b6103736114f1565b6040518080602001828103825283818151815260200191508051906020019080838360005b838110156103b3578082015181840152602081019050610398565b50505050905090810190601f1680156103e05780820380516001836020036101000a031916815260200191505b509250505060405180910390f35b34156103f957600080fd5b61040f6004808035906020019091905050611534565b604051808273ffffffffffffffffffffffffffffffffffffffff1673ffffffffffffffffffffffffffffffffffffffff16815260200191505060405180910390f35b610486600480803573ffffffffffffffffffffffffffffffffffffffff16906020019091908035906020019091905050611571565b005b61049e600480803590602001909190505061169b565b005b34156104ab57600080fd5b6104b36119e1565b6040518082815260200191505060405180910390f35b34156104d457600080fd5b6104dc6119e7565b6040518082815260200191505060405180910390f35b610546600480803573ffffffffffffffffffffffffffffffffffffffff1690602001909190803573ffffffffffffffffffffffffffffffffffffffff169060200190919080359060200190919050506119f4565b005b341561055357600080fd5b6105696004808035906020019091905050611b3e565b60405180851515151581526020018481526020018373ffffffffffffffffffffffffffffffffffffffff1673ffffffffffffffffffffffffffffffffffffffff16815260200182815260200194505050505060405180910390f35b34156105cf57600080fd5b610604600480803573ffffffffffffffffffffffffffffffffffffffff16906020019091908035906020019091905050611b9b565b6040518082815260200191505060405180910390f35b341561062557600080fd5b61063b6004808035906020019091905050611c88565b60405180861515151581526020018581526020018473ffffffffffffffffffffffffffffffffffffffff1673ffffffffffffffffffffffffffffffffffffffff1681526020018381526020018273ffffffffffffffffffffffffffffffffffffffff1673ffffffffffffffffffffffffffffffffffffffff1681526020019550505050505060405180910390f35b34156106d457600080fd5b6106dc611d0b565b005b610732600480803573ffffffffffffffffffffffffffffffffffffffff1690602001909190803573ffffffffffffffffffffffffffffffffffffffff16906020019091908035906020019091905050611dd7565b005b341561073f57600080fd5b6107556004808035906020019091905050611df8565b6040518082815260200191505060405180910390f35b6107816004808035906020019091905050611e1c565b005b6107a26004808035906020019091908035906020019091905050611e82565b005b34156107af57600080fd5b6107c56004808035906020019091905050612083565b604051808273ffffffffffffffffffffffffffffffffffffffff1673ffffffffffffffffffffffffffffffffffffffff16815260200191505060405180910390f35b341561081257600080fd5b610847600480803573ffffffffffffffffffffffffffffffffffffffff169060200190919080359060200190919050506120c0565b6040518082815260200191505060405180910390f35b341561086857600080fd5b61087e60048080359060200190919050506120f1565b604051808273ffffffffffffffffffffffffffffffffffffffff1673ffffffffffffffffffffffffffffffffffffffff16815260200191505060405180910390f35b6108d66004808035906020019091905050612124565b005b34156108e357600080fd5b61090f600480803573ffffffffffffffffffffffffffffffffffffffff1690602001909190505061219d565b6040518082815260200191505060405180910390f35b61093b60048080359060200190919050506121e6565b005b341561094857600080fd5b610974600480803573ffffffffffffffffffffffffffffffffffffffff16906020019091905050612513565b6040518080602001828103825283818151815260200191508051906020019060200280838360005b838110156109b757808201518184015260208101905061099c565b505050509050019250505060405180910390f35b34156109d657600080fd5b6109ec6004808035906020019091905050612654565b60405180851515151581526020018473ffffffffffffffffffffffffffffffffffffffff1673ffffffffffffffffffffffffffffffffffffffff1681526020018381526020018273ffffffffffffffffffffffffffffffffffffffff1673ffffffffffffffffffffffffffffffffffffffff16815260200194505050505060405180910390f35b3415610a7e57600080fd5b610a86612782565b604051808273ffffffffffffffffffffffffffffffffffffffff1673ffffffffffffffffffffffffffffffffffffffff16815260200191505060405180910390f35b3415610ad357600080fd5b610adb6127a8565b6040518080602001828103825283818151815260200191508051906020019080838360005b83811015610b1b578082015181840152602081019050610b00565b50505050905090810190601f168015610b485780820380516001836020036101000a031916815260200191505b509250505060405180910390f35b3415610b6157600080fd5b610b98600480803573ffffffffffffffffffffffffffffffffffffffff1690602001909190803515159060200190919050506127eb565b005b3415610ba557600080fd5b610bbb60048080359060200190919050506128ec565b60405180841515151581526020018373ffffffffffffffffffffffffffffffffffffffff1673ffffffffffffffffffffffffffffffffffffffff168152602001828152602001935050505060405180910390f35b610c2560048080359060200190919050506129bc565b005b3415610c3257600080fd5b610c486004808035906020019091905050612c10565b604051808273ffffffffffffffffffffffffffffffffffffffff1673ffffffffffffffffffffffffffffffffffffffff16815260200191505060405180910390f35b610cc8600480803590602001909190803573ffffffffffffffffffffffffffffffffffffffff16906020019091908035906020019091905050612c43565b005b610ce06004808035906020019091905050612e57565b005b610cf86004808035906020019091905050613031565b005b610d91600480803573ffffffffffffffffffffffffffffffffffffffff1690602001909190803573ffffffffffffffffffffffffffffffffffffffff1690602001909190803590602001909190803590602001908201803590602001908080601f016020809104026020016040519081016040528093929190818152602001838380828437820191505050505050919050506133ca565b005b3415610d9e57600080fd5b610dca600480803573ffffffffffffffffffffffffffffffffffffffff169060200190919050506133dc565b6040518082815260200191505060405180910390f35b3415610deb57600080fd5b610df36133f4565b604051808273ffffffffffffffffffffffffffffffffffffffff1673ffffffffffffffffffffffffffffffffffffffff16815260200191505060405180910390f35b3415610e4057600080fd5b610e4861341a565b6040518080602001828103825283818151815260200191508051906020019060200280838360005b83811015610e8b578082015181840152602081019050610e70565b505050509050019250505060405180910390f35b3415610eaa57600080fd5b610ec060048080359060200190919050506134ac565b6040518082815260200191505060405180910390f35b3415610ee157600080fd5b610ee96134d0565b6040518082815260200191505060405180910390f35b3415610f0a57600080fd5b610f36600480803573ffffffffffffffffffffffffffffffffffffffff169060200190919050506134d6565b005b3415610f4357600080fd5b610f8e600480803573ffffffffffffffffffffffffffffffffffffffff1690602001909190803573ffffffffffffffffffffffffffffffffffffffff16906020019091905050613576565b604051808215151515815260200191505060405180910390f35b3415610fb357600080fd5b610fc9600480803590602001909190505061360a565b604051808215151515815260200191505060405180910390f35b3415610fee57600080fd5b61101a600480803573ffffffffffffffffffffffffffffffffffffffff16906020019091905050613637565b005b341561102757600080fd5b611053600480803573ffffffffffffffffffffffffffffffffffffffff1690602001909190505061378f565b6040518082815260200191505060405180910390f35b6000806000837bffffffffffffffffffffffffffffffffffffffffffffffffffffffff19167bffffffffffffffffffffffffffffffffffffffffffffffffffffffff1916815260200190815260200160002060009054906101000a900460ff168015611117575063ffffffff7c010000000000000000000000000000000000000000000000000000000002827bffffffffffffffffffffffffffffffffffffffffffffffffffffffff191614155b9050919050565b61112661410c565b3373ffffffffffffffffffffffffffffffffffffffff166006600085815260200190815260200160002060009054906101000a900473ffffffffffffffffffffffffffffffffffffffff1673ffffffffffffffffffffffffffffffffffffffff1614151561119357600080fd5b600d6000848152602001908152602001600020608060405190810160405290816000820160009054906101000a900460ff16151515158152602001600182015481526020016002820160009054906101000a900473ffffffffffffffffffffffffffffffffffffffff1673ffffffffffffffffffffffffffffffffffffffff1673ffffffffffffffffffffffffffffffffffffffff1681526020016003820154815250509050600081606001511415151561124d57600080fd5b81816060015114151561125f57600080fd5b61126e33826040015185611dd7565b608060405190810160405280600015158152602001848152602001600073ffffffffffffffffffffffffffffffffffffffff1681526020016000815250600d600085815260200190815260200160002060008201518160000160006101000a81548160ff0219169083151502179055506020820151816001015560408201518160020160006101000a81548173ffffffffffffffffffffffffffffffffffffffff021916908373ffffffffffffffffffffffffffffffffffffffff160217905550606082015181600301559050508060600151600b60003373ffffffffffffffffffffffffffffffffffffffff1673ffffffffffffffffffffffffffffffffffffffff16815260200190815260200160002060008282540192505081905550505050565b61139a61414d565b60006113a4614161565b600073ffffffffffffffffffffffffffffffffffffffff16600460009054906101000a900473ffffffffffffffffffffffffffffffffffffffff1673ffffffffffffffffffffffffffffffffffffffff161415151561140257600080fd5b600460009054906101000a900473ffffffffffffffffffffffffffffffffffffffff1673ffffffffffffffffffffffffffffffffffffffff1663cb4799f28787876040518463ffffffff167c010000000000000000000000000000000000000000000000000000000002815260040180848152602001806020018281038252848482818152602001925080828437820191505094505050505060a060405180830381600087803b15156114b457600080fd5b5af115156114c157600080fd5b5050506040518060800180519060200160405280935081925050506114e681836137a7565b925050509392505050565b6114f961414d565b6040805190810160405280600881526020017f47616e546f6b656e000000000000000000000000000000000000000000000000815250905090565b60006009600083815260200190815260200160002060009054906101000a900473ffffffffffffffffffffffffffffffffffffffff169050919050565b803373ffffffffffffffffffffffffffffffffffffffff166006600083815260200190815260200160002060009054906101000a900473ffffffffffffffffffffffffffffffffffffffff1673ffffffffffffffffffffffffffffffffffffffff161415156115df57600080fd5b826009600084815260200190815260200160002060006101000a81548173ffffffffffffffffffffffffffffffffffffffff021916908373ffffffffffffffffffffffffffffffffffffffff1602179055508273ffffffffffffffffffffffffffffffffffffffff163373ffffffffffffffffffffffffffffffffffffffff167f8c5be1e5ebec7d5bd14f71427d1e84f3dd0314c0f7b2291e5b200ac8c7c3b925846040518082815260200191505060405180910390a3505050565b6116a361410c565b6000600d6000848152602001908152602001600020608060405190810160405290816000820160009054906101000a900460ff16151515158152602001600182015481526020016002820160009054906101000a900473ffffffffffffffffffffffffffffffffffffffff1673ffffffffffffffffffffffffffffffffffffffff1673ffffffffffffffffffffffffffffffffffffffff16815260200160038201548152505091503373ffffffffffffffffffffffffffffffffffffffff166006600085815260200190815260200160002060009054906101000a900473ffffffffffffffffffffffffffffffffffffffff1673ffffffffffffffffffffffffffffffffffffffff16141515156117b957600080fd5b60006006600085815260200190815260200160002060009054906101000a900473ffffffffffffffffffffffffffffffffffffffff1673ffffffffffffffffffffffffffffffffffffffff161415151561181257600080fd5b3373ffffffffffffffffffffffffffffffffffffffff16826040015173ffffffffffffffffffffffffffffffffffffffff1614151561185057600080fd5b7fb41c9b05054be45850ccc1da7d90c7b819cff855cfe0d14f16427398b286c9b683836060015133604051808481526020018381526020018273ffffffffffffffffffffffffffffffffffffffff1673ffffffffffffffffffffffffffffffffffffffff168152602001935050505060405180910390a181606001519050608060405190810160405280600015158152602001848152602001600073ffffffffffffffffffffffffffffffffffffffff1681526020016000815250600d600085815260200190815260200160002060008201518160000160006101000a81548160ff0219169083151502179055506020820151816001015560408201518160020160006101000a81548173ffffffffffffffffffffffffffffffffffffffff021916908373ffffffffffffffffffffffffffffffffffffffff160217905550606082015181600301559050503373ffffffffffffffffffffffffffffffffffffffff166108fc829081150290604051600060405180830381858888f1935050505015156119dc57600080fd5b505050565b60025481565b6000600580549050905090565b60008273ffffffffffffffffffffffffffffffffffffffff1614151515611a1a57600080fd5b3073ffffffffffffffffffffffffffffffffffffffff168273ffffffffffffffffffffffffffffffffffffffff1614151515611a5557600080fd5b3373ffffffffffffffffffffffffffffffffffffffff166009600083815260200190815260200160002060009054906101000a900473ffffffffffffffffffffffffffffffffffffffff1673ffffffffffffffffffffffffffffffffffffffff16141515611ac257600080fd5b8273ffffffffffffffffffffffffffffffffffffffff166006600083815260200190815260200160002060009054906101000a900473ffffffffffffffffffffffffffffffffffffffff1673ffffffffffffffffffffffffffffffffffffffff16141515611b2f57600080fd5b611b3981836137ff565b505050565b600d6020528060005260406000206000915090508060000160009054906101000a900460ff16908060010154908060020160009054906101000a900473ffffffffffffffffffffffffffffffffffffffff16908060030154905084565b60008073ffffffffffffffffffffffffffffffffffffffff168373ffffffffffffffffffffffffffffffffffffffff1614151515611bd857600080fd5b600860008473ffffffffffffffffffffffffffffffffffffffff1673ffffffffffffffffffffffffffffffffffffffff1681526020019081526020016000208054905082101515611c2857600080fd5b600860008473ffffffffffffffffffffffffffffffffffffffff1673ffffffffffffffffffffffffffffffffffffffff16815260200190815260200160002082815481101515611c7457fe5b906000526020600020900154905092915050565b600c6020528060005260406000206000915090508060000160009054906101000a900460ff16908060010154908060020160009054906101000a900473ffffffffffffffffffffffffffffffffffffffff16908060030154908060040160009054906101000a900473ffffffffffffffffffffffffffffffffffffffff16905085565b6000600b60003373ffffffffffffffffffffffffffffffffffffffff1673ffffffffffffffffffffffffffffffffffffffff1681526020019081526020016000205490506000600b60003373ffffffffffffffffffffffffffffffffffffffff1673ffffffffffffffffffffffffffffffffffffffff168152602001908152602001600020819055503373ffffffffffffffffffffffffffffffffffffffff166108fc829081150290604051600060405180830381858888f193505050501515611dd457600080fd5b50565b611df38383836020604051908101604052806000815250613c6d565b505050565b6000600582815481101515611e0957fe5b9060005260206000209001549050919050565b600160009054906101000a900473ffffffffffffffffffffffffffffffffffffffff1673ffffffffffffffffffffffffffffffffffffffff163373ffffffffffffffffffffffffffffffffffffffff16141515611e7857600080fd5b8060028190555050565b813373ffffffffffffffffffffffffffffffffffffffff166006600083815260200190815260200160002060009054906101000a900473ffffffffffffffffffffffffffffffffffffffff1673ffffffffffffffffffffffffffffffffffffffff16141515611ef057600080fd5b60a0604051908101604052806001151581526020018481526020013373ffffffffffffffffffffffffffffffffffffffff168152602001838152602001600073ffffffffffffffffffffffffffffffffffffffff16815250600c600085815260200190815260200160002060008201518160000160006101000a81548160ff0219169083151502179055506020820151816001015560408201518160020160006101000a81548173ffffffffffffffffffffffffffffffffffffffff021916908373ffffffffffffffffffffffffffffffffffffffff1602179055506060820151816003015560808201518160040160006101000a81548173ffffffffffffffffffffffffffffffffffffffff021916908373ffffffffffffffffffffffffffffffffffffffff1602179055509050507f96995469ba2398c3a99251b3feca78470bedcf84474cf663ac3ff6f284629c8783836000604051808481526020018381526020018273ffffffffffffffffffffffffffffffffffffffff168152602001935050505060405180910390a1505050565b60006006600083815260200190815260200160002060009054906101000a900473ffffffffffffffffffffffffffffffffffffffff169050919050565b6008602052816000526040600020818154811015156120db57fe5b9060005260206000209001600091509150505481565b60066020528060005260406000206000915054906101000a900473ffffffffffffffffffffffffffffffffffffffff1681565b600160009054906101000a900473ffffffffffffffffffffffffffffffffffffffff1673ffffffffffffffffffffffffffffffffffffffff163373ffffffffffffffffffffffffffffffffffffffff1614151561218057600080fd5b6005805490508111151561219357600080fd5b8060038190555050565b6000600760008373ffffffffffffffffffffffffffffffffffffffff1673ffffffffffffffffffffffffffffffffffffffff168152602001908152602001600020549050919050565b6121ee61410c565b600d6000838152602001908152602001600020608060405190810160405290816000820160009054906101000a900460ff16151515158152602001600182015481526020016002820160009054906101000a900473ffffffffffffffffffffffffffffffffffffffff1673ffffffffffffffffffffffffffffffffffffffff1673ffffffffffffffffffffffffffffffffffffffff16815260200160038201548152505090503373ffffffffffffffffffffffffffffffffffffffff166006600084815260200190815260200160002060009054906101000a900473ffffffffffffffffffffffffffffffffffffffff1673ffffffffffffffffffffffffffffffffffffffff161415151561230257600080fd5b60006006600084815260200190815260200160002060009054906101000a900473ffffffffffffffffffffffffffffffffffffffff1673ffffffffffffffffffffffffffffffffffffffff161415151561235b57600080fd5b80606001513411151561236d57600080fd5b6000816060015111156123d0578060600151600b6000836040015173ffffffffffffffffffffffffffffffffffffffff1673ffffffffffffffffffffffffffffffffffffffff168152602001908152602001600020600082825401925050819055505b6080604051908101604052806001151581526020018381526020013373ffffffffffffffffffffffffffffffffffffffff16815260200134815250600d600084815260200190815260200160002060008201518160000160006101000a81548160ff0219169083151502179055506020820151816001015560408201518160020160006101000a81548173ffffffffffffffffffffffffffffffffffffffff021916908373ffffffffffffffffffffffffffffffffffffffff160217905550606082015181600301559050507f5f2b6d44640bd0c5cd3b8bbf12061c1e8429ac59eaa73fc2d9786a8b13e8830a823433604051808481526020018381526020018273ffffffffffffffffffffffffffffffffffffffff1673ffffffffffffffffffffffffffffffffffffffff168152602001935050505060405180910390a15050565b61251b61418c565b600061252561418c565b6000600760008673ffffffffffffffffffffffffffffffffffffffff1673ffffffffffffffffffffffffffffffffffffffff16815260200190815260200160002054925060008314156125995760006040518059106125815750595b9080825280602002602001820160405250935061264c565b826040518059106125a75750595b90808252806020026020018201604052509150600090505b8281101561264857600860008673ffffffffffffffffffffffffffffffffffffffff1673ffffffffffffffffffffffffffffffffffffffff1681526020019081526020016000208181548110151561261357fe5b906000526020600020900154828281518110151561262d57fe5b906020019060200201818152505080806001019150506125bf565b8193505b505050919050565b6000806000806126626141a0565b600c600087815260200190815260200160002060a060405190810160405290816000820160009054906101000a900460ff16151515158152602001600182015481526020016002820160009054906101000a900473ffffffffffffffffffffffffffffffffffffffff1673ffffffffffffffffffffffffffffffffffffffff1673ffffffffffffffffffffffffffffffffffffffff168152602001600382015481526020016004820160009054906101000a900473ffffffffffffffffffffffffffffffffffffffff1673ffffffffffffffffffffffffffffffffffffffff1673ffffffffffffffffffffffffffffffffffffffff1681525050905080600001519450806040015193508060600151925080608001519150509193509193565b600160009054906101000a900473ffffffffffffffffffffffffffffffffffffffff1681565b6127b061414d565b6040805190810160405280600281526020017f4754000000000000000000000000000000000000000000000000000000000000815250905090565b80600a60003373ffffffffffffffffffffffffffffffffffffffff1673ffffffffffffffffffffffffffffffffffffffff16815260200190815260200160002060008473ffffffffffffffffffffffffffffffffffffffff1673ffffffffffffffffffffffffffffffffffffffff16815260200190815260200160002060006101000a81548160ff0219169083151502179055508173ffffffffffffffffffffffffffffffffffffffff163373ffffffffffffffffffffffffffffffffffffffff167f17307eab39ab6107e8899845ad3d59bd9653f200f220920489ca2b5937696c3183604051808215151515815260200191505060405180910390a35050565b60008060006128f961410c565b600d6000868152602001908152602001600020608060405190810160405290816000820160009054906101000a900460ff16151515158152602001600182015481526020016002820160009054906101000a900473ffffffffffffffffffffffffffffffffffffffff1673ffffffffffffffffffffffffffffffffffffffff1673ffffffffffffffffffffffffffffffffffffffff1681526020016003820154815250509050806000015193508060400151925080606001519150509193909250565b600073ffffffffffffffffffffffffffffffffffffffff163373ffffffffffffffffffffffffffffffffffffffff16141515156129f857600080fd5b60006006600083815260200190815260200160002060009054906101000a900473ffffffffffffffffffffffffffffffffffffffff1673ffffffffffffffffffffffffffffffffffffffff16141515612a5057600080fd5b600354600580549050101515612a6557600080fd5b6002543410151515612a7657600080fd5b60058054806001018281612a8a91906141fe565b916000526020600020900160008390919091505550600860003373ffffffffffffffffffffffffffffffffffffffff1673ffffffffffffffffffffffffffffffffffffffff1681526020019081526020016000208054806001018281612af091906141fe565b916000526020600020900160008390919091505550336006600083815260200190815260200160002060006101000a81548173ffffffffffffffffffffffffffffffffffffffff021916908373ffffffffffffffffffffffffffffffffffffffff160217905550600760003373ffffffffffffffffffffffffffffffffffffffff1673ffffffffffffffffffffffffffffffffffffffff168152602001908152602001600020600081548092919060010191905055503373ffffffffffffffffffffffffffffffffffffffff16600073ffffffffffffffffffffffffffffffffffffffff167fddf252ad1be2c89b69c2b068fc378daa952ba7f163c4a11628f55a4df523b3ef60006040518082815260200191505060405180910390a350565b60096020528060005260406000206000915054906101000a900473ffffffffffffffffffffffffffffffffffffffff1681565b3373ffffffffffffffffffffffffffffffffffffffff166006600085815260200190815260200160002060009054906101000a900473ffffffffffffffffffffffffffffffffffffffff1673ffffffffffffffffffffffffffffffffffffffff16141515612cb057600080fd5b60a0604051908101604052806001151581526020018481526020013373ffffffffffffffffffffffffffffffffffffffff1681526020018281526020018373ffffffffffffffffffffffffffffffffffffffff16815250600c600085815260200190815260200160002060008201518160000160006101000a81548160ff0219169083151502179055506020820151816001015560408201518160020160006101000a81548173ffffffffffffffffffffffffffffffffffffffff021916908373ffffffffffffffffffffffffffffffffffffffff1602179055506060820151816003015560808201518160040160006101000a81548173ffffffffffffffffffffffffffffffffffffffff021916908373ffffffffffffffffffffffffffffffffffffffff1602179055509050507f96995469ba2398c3a99251b3feca78470bedcf84474cf663ac3ff6f284629c87838284604051808481526020018381526020018273ffffffffffffffffffffffffffffffffffffffff1673ffffffffffffffffffffffffffffffffffffffff168152602001935050505060405180910390a1505050565b803373ffffffffffffffffffffffffffffffffffffffff166006600083815260200190815260200160002060009054906101000a900473ffffffffffffffffffffffffffffffffffffffff1673ffffffffffffffffffffffffffffffffffffffff16141515612ec557600080fd5b60a0604051908101604052806000151581526020018381526020013373ffffffffffffffffffffffffffffffffffffffff16815260200160008152602001600073ffffffffffffffffffffffffffffffffffffffff16815250600c600084815260200190815260200160002060008201518160000160006101000a81548160ff0219169083151502179055506020820151816001015560408201518160020160006101000a81548173ffffffffffffffffffffffffffffffffffffffff021916908373ffffffffffffffffffffffffffffffffffffffff1602179055506060820151816003015560808201518160040160006101000a81548173ffffffffffffffffffffffffffffffffffffffff021916908373ffffffffffffffffffffffffffffffffffffffff1602179055509050507f80e8becc579a99c2394cee656d63bf4aef9c039638d459b988d460cf8f3f297b826040518082815260200191505060405180910390a15050565b6130396141a0565b600c600083815260200190815260200160002060a060405190810160405290816000820160009054906101000a900460ff16151515158152602001600182015481526020016002820160009054906101000a900473ffffffffffffffffffffffffffffffffffffffff1673ffffffffffffffffffffffffffffffffffffffff1673ffffffffffffffffffffffffffffffffffffffff168152602001600382015481526020016004820160009054906101000a900473ffffffffffffffffffffffffffffffffffffffff1673ffffffffffffffffffffffffffffffffffffffff1673ffffffffffffffffffffffffffffffffffffffff168152505090508060000151151561314557600080fd5b3373ffffffffffffffffffffffffffffffffffffffff16816080015173ffffffffffffffffffffffffffffffffffffffff1614801561319f57506000816080015173ffffffffffffffffffffffffffffffffffffffff1614155b15156131aa57600080fd5b8060600151341415156131bc57600080fd5b806040015173ffffffffffffffffffffffffffffffffffffffff166006600084815260200190815260200160002060009054906101000a900473ffffffffffffffffffffffffffffffffffffffff1673ffffffffffffffffffffffffffffffffffffffff1614151561322d57600080fd5b6132408160400151826080015184611dd7565b60a060405190810160405280600015158152602001838152602001826040015173ffffffffffffffffffffffffffffffffffffffff16815260200160008152602001600073ffffffffffffffffffffffffffffffffffffffff16815250600c600084815260200190815260200160002060008201518160000160006101000a81548160ff0219169083151502179055506020820151816001015560408201518160020160006101000a81548173ffffffffffffffffffffffffffffffffffffffff021916908373ffffffffffffffffffffffffffffffffffffffff1602179055506060820151816003015560808201518160040160006101000a81548173ffffffffffffffffffffffffffffffffffffffff021916908373ffffffffffffffffffffffffffffffffffffffff16021790555090505034600b6000836040015173ffffffffffffffffffffffffffffffffffffffff1673ffffffffffffffffffffffffffffffffffffffff168152602001908152602001600020600082825401925050819055505050565b6133d684848484613c6d565b50505050565b60076020528060005260406000206000915090505481565b600460009054906101000a900473ffffffffffffffffffffffffffffffffffffffff1681565b61342261418c565b61342a61418c565b600060058054905060405180591061343f5750595b90808252806020026020018201604052509150600090505b81518110156134a45760058181548110151561346f57fe5b906000526020600020900154828281518110151561348957fe5b90602001906020020181815250508080600101915050613457565b819250505090565b6005818154811015156134bb57fe5b90600052602060002090016000915090505481565b60035481565b600160009054906101000a900473ffffffffffffffffffffffffffffffffffffffff1673ffffffffffffffffffffffffffffffffffffffff163373ffffffffffffffffffffffffffffffffffffffff1614151561353257600080fd5b80600460006101000a81548173ffffffffffffffffffffffffffffffffffffffff021916908373ffffffffffffffffffffffffffffffffffffffff16021790555050565b6000600a60008473ffffffffffffffffffffffffffffffffffffffff1673ffffffffffffffffffffffffffffffffffffffff16815260200190815260200160002060008373ffffffffffffffffffffffffffffffffffffffff1673ffffffffffffffffffffffffffffffffffffffff16815260200190815260200160002060009054906101000a900460ff16905092915050565b6000600c600083815260200190815260200160002060000160009054906101000a900460ff169050919050565b600160009054906101000a900473ffffffffffffffffffffffffffffffffffffffff1673ffffffffffffffffffffffffffffffffffffffff163373ffffffffffffffffffffffffffffffffffffffff1614151561369357600080fd5b600073ffffffffffffffffffffffffffffffffffffffff168173ffffffffffffffffffffffffffffffffffffffff16141515156136cf57600080fd5b8073ffffffffffffffffffffffffffffffffffffffff16600160009054906101000a900473ffffffffffffffffffffffffffffffffffffffff1673ffffffffffffffffffffffffffffffffffffffff167f8be0079c531659141344cd1fd0a4f28419497f9722a3daafe3b4186f6b6457e060405160405180910390a380600160006101000a81548173ffffffffffffffffffffffffffffffffffffffff021916908373ffffffffffffffffffffffffffffffffffffffff16021790555050565b600b6020528060005260406000206000915090505481565b6137af61414d565b6137b761414d565b600080846040518059106137c85750595b9080825280601f01601f191660200182016040525092506020830191508590506137f38282876140c1565b82935050505092915050565b600080600080600073ffffffffffffffffffffffffffffffffffffffff168573ffffffffffffffffffffffffffffffffffffffff161415151561384157600080fd5b6006600087815260200190815260200160002060009054906101000a900473ffffffffffffffffffffffffffffffffffffffff169350600760008573ffffffffffffffffffffffffffffffffffffffff1673ffffffffffffffffffffffffffffffffffffffff168152602001908152602001600020549250600091505b82821015613a5557600860008573ffffffffffffffffffffffffffffffffffffffff1673ffffffffffffffffffffffffffffffffffffffff1681526020019081526020016000208281548110151561391257fe5b906000526020600020900154905080861415613a4857600860008573ffffffffffffffffffffffffffffffffffffffff1673ffffffffffffffffffffffffffffffffffffffff1681526020019081526020016000208281548110151561397457fe5b9060005260206000209001600090558282141515613a4357600860008573ffffffffffffffffffffffffffffffffffffffff1673ffffffffffffffffffffffffffffffffffffffff168152602001908152602001600020600184038154811015156139db57fe5b906000526020600020900154600860008673ffffffffffffffffffffffffffffffffffffffff1673ffffffffffffffffffffffffffffffffffffffff16815260200190815260200160002083815481101515613a3357fe5b9060005260206000209001819055505b613a55565b81806001019250506138be565b600760008573ffffffffffffffffffffffffffffffffffffffff1673ffffffffffffffffffffffffffffffffffffffff1681526020019081526020016000206000815480929190600190039190505550600760008673ffffffffffffffffffffffffffffffffffffffff1673ffffffffffffffffffffffffffffffffffffffff16815260200190815260200160002060008154809291906001019190505550600860008673ffffffffffffffffffffffffffffffffffffffff1673ffffffffffffffffffffffffffffffffffffffff1681526020019081526020016000208054806001018281613b4591906141fe565b916000526020600020900160008890919091505550846006600088815260200190815260200160002060006101000a81548173ffffffffffffffffffffffffffffffffffffffff021916908373ffffffffffffffffffffffffffffffffffffffff16021790555060006009600088815260200190815260200160002060006101000a81548173ffffffffffffffffffffffffffffffffffffffff021916908373ffffffffffffffffffffffffffffffffffffffff1602179055508473ffffffffffffffffffffffffffffffffffffffff168473ffffffffffffffffffffffffffffffffffffffff167fddf252ad1be2c89b69c2b068fc378daa952ba7f163c4a11628f55a4df523b3ef60016040518082815260200191505060405180910390a3505050505050565b600080600084878760006006600085815260200190815260200160002060009054906101000a900473ffffffffffffffffffffffffffffffffffffffff1690508173ffffffffffffffffffffffffffffffffffffffff166009600086815260200190815260200160002060009054906101000a900473ffffffffffffffffffffffffffffffffffffffff1673ffffffffffffffffffffffffffffffffffffffff161480613d4557508273ffffffffffffffffffffffffffffffffffffffff168173ffffffffffffffffffffffffffffffffffffffff16145b80613dd65750600a60008373ffffffffffffffffffffffffffffffffffffffff1673ffffffffffffffffffffffffffffffffffffffff16815260200190815260200160002060008373ffffffffffffffffffffffffffffffffffffffff1673ffffffffffffffffffffffffffffffffffffffff16815260200190815260200160002060009054906101000a900460ff165b1515613de157600080fd5b600660008a815260200190815260200160002060009054906101000a900473ffffffffffffffffffffffffffffffffffffffff1696508a73ffffffffffffffffffffffffffffffffffffffff168773ffffffffffffffffffffffffffffffffffffffff16141515613e5157600080fd5b600073ffffffffffffffffffffffffffffffffffffffff168a73ffffffffffffffffffffffffffffffffffffffff1614151515613e8d57600080fd5b3073ffffffffffffffffffffffffffffffffffffffff168a73ffffffffffffffffffffffffffffffffffffffff1614151515613ec857600080fd5b613ed2898b6137ff565b893b95506000861415613ee4576140b4565b8973ffffffffffffffffffffffffffffffffffffffff1663f0b9e5ba8c8b8b6040518463ffffffff167c0100000000000000000000000000000000000000000000000000000000028152600401808473ffffffffffffffffffffffffffffffffffffffff1673ffffffffffffffffffffffffffffffffffffffff16815260200183815260200180602001828103825283818151815260200191508051906020019080838360005b83811015613fa6578082015181840152602081019050613f8b565b50505050905090810190601f168015613fd35780820380516001836020036101000a031916815260200191505b50945050505050602060405180830381600087803b1515613ff357600080fd5b5af1151561400057600080fd5b50505060405180519050945060405180807f6f6e455243373231526563656976656428616464726573732c75696e7432353681526020017f2c62797465732900000000000000000000000000000000000000000000000000815250602701905060405180910390207bffffffffffffffffffffffffffffffffffffffffffffffffffffffff1916857bffffffffffffffffffffffffffffffffffffffffffffffffffffffff19161415156140b357600080fd5b5b5050505050505050505050565b60005b6020821015156140e957825184526020840193506020830192506020820391506140c4565b6001826020036101000a0390508019835116818551168181178652505050505050565b60806040519081016040528060001515815260200160008152602001600073ffffffffffffffffffffffffffffffffffffffff168152602001600081525090565b602060405190810160405280600081525090565b6080604051908101604052806004905b60008019168152602001906001900390816141715790505090565b602060405190810160405280600081525090565b60a06040519081016040528060001515815260200160008152602001600073ffffffffffffffffffffffffffffffffffffffff16815260200160008152602001600073ffffffffffffffffffffffffffffffffffffffff1681525090565b81548183558181151161422557818360005260206000209182019101614224919061422a565b5b505050565b61424c91905b80821115614248576000816000905550600101614230565b5090565b905600a165627a7a72305820f52c7257a35f5fbd33cd6003a4d1171f8edcc5c966e084bf9c1f57405b7e68b60029",
  "source": "pragma solidity ^0.4.21;\nimport \"./GanNFT.sol\";\n\ncontract GanTokenMain is GanNFT {\n\n  struct Offer {\n    bool isForSale;\n    uint256 tokenId;\n    address seller;\n    uint value;          // in ether\n    address onlySellTo;     // specify to sell only to a specific person\n  }\n\n  struct Bid {\n    bool hasBid;\n    uint256 tokenId;\n    address bidder;\n    uint value;\n  }\n\n  /// @dev mapping of balances for address\n  mapping(address => uint256) public pendingWithdrawals;\n\n  /// @dev mapping of tokenId to to an offer\n  mapping(uint256 => Offer) public ganTokenOfferedForSale;\n\n  /// @dev mapping bids to tokenIds\n  mapping(uint256 => Bid) public tokenBids;\n\n  event BidForGanTokenOffered(uint256 tokenId, uint256 value, address sender);\n  event BidWithdrawn(uint256 tokenId, uint256 value, address bidder);\n  event GanTokenOfferedForSale(uint256 tokenId, uint256 minSalePriceInWei, address onlySellTo);\n  event GanTokenNoLongerForSale(uint256 tokenId);\n\n\n  /// @notice Allow a token owner to pull sale\n  /// @param tokenId The id of the token that's created\n  function ganTokenNoLongerForSale(uint256 tokenId) public payable owns(tokenId) {\n    ganTokenOfferedForSale[tokenId] = Offer(false, tokenId, msg.sender, 0, 0x0);\n\n    emit GanTokenNoLongerForSale(tokenId);\n  }\n\n  /// @notice Put a token up for sale\n  /// @param tokenId The id of the token that's created\n  /// @param minSalePriceInWei desired price of token\n  function offerGanTokenForSale(uint tokenId, uint256 minSalePriceInWei) external payable owns(tokenId) {\n    ganTokenOfferedForSale[tokenId] = Offer(true, tokenId, msg.sender, minSalePriceInWei, 0x0);\n\n    emit GanTokenOfferedForSale(tokenId, minSalePriceInWei, 0x0);\n  }\n\n  /// @notice Create a new GanToken with a id and attaches an owner\n  /// @param tokenId The id of the token that's being created\n  function offerGanTokenForSaleToAddress(uint tokenId, address sendTo, uint256 minSalePriceInWei) external payable {\n    require(tokenIdToOwner[tokenId] == msg.sender);\n    ganTokenOfferedForSale[tokenId] = Offer(true, tokenId, msg.sender, minSalePriceInWei, sendTo);\n\n    emit GanTokenOfferedForSale(tokenId, minSalePriceInWei, sendTo);\n  }\n\n  /// @notice Allows an account to buy a NFT gan token that is up for offer\n  /// the token owner must set onlySellTo to the sender\n  /// @param id the id of the token\n  function buyGanToken(uint256 id) public payable {\n    Offer memory offer = ganTokenOfferedForSale[id];\n    require(offer.isForSale);\n    require(offer.onlySellTo == msg.sender && offer.onlySellTo != 0x0);\n    require(msg.value == offer.value);\n    require(tokenIdToOwner[id] == offer.seller);\n\n    safeTransferFrom(offer.seller, offer.onlySellTo, id);\n\n    ganTokenOfferedForSale[id] = Offer(false, id, offer.seller, 0, 0x0);\n\n    pendingWithdrawals[offer.seller] += msg.value;\n  }\n\n  /// @notice Allows an account to enter a higher bid on a toekn\n  /// @param tokenId the id of the token\n  function enterBidForGanToken(uint256 tokenId) external payable {\n    Bid memory existing = tokenBids[tokenId];\n    require(tokenIdToOwner[tokenId] != msg.sender);\n    require(tokenIdToOwner[tokenId] != 0x0);\n    require(msg.value > existing.value);\n    if (existing.value > 0) {\n      // Refund the failing bid\n      pendingWithdrawals[existing.bidder] += existing.value;\n    }\n\n    tokenBids[tokenId] = Bid(true, tokenId, msg.sender, msg.value);\n    emit BidForGanTokenOffered(tokenId, msg.value, msg.sender);\n  }\n\n  /// @notice Allows the owner of a token to accept an outstanding bid for that token\n  /// @param tokenId The id of the token that's being created\n  /// @param price The desired price of token in wei\n  function acceptBid(uint256 tokenId, uint256 price) external payable {\n    require(tokenIdToOwner[tokenId] == msg.sender);\n    Bid memory bid = tokenBids[tokenId];\n    require(bid.value != 0);\n    require(bid.value == price);\n\n    safeTransferFrom(msg.sender, bid.bidder, tokenId);\n\n    tokenBids[tokenId] = Bid(false, tokenId, address(0), 0);\n    pendingWithdrawals[msg.sender] += bid.value;\n  }\n\n  /// @notice Check is a given id is on sale\n  /// @param tokenId The id of the token in question\n  /// @return a bool whether of not the token is on sale\n  function isOnSale(uint256 tokenId) external view returns (bool) {\n    return ganTokenOfferedForSale[tokenId].isForSale;\n  }\n\n  /// @notice Gets all the sale data related to a token\n  /// @param tokenId The id of the token\n  /// @return sale information\n  function getSaleData(uint256 tokenId) public view returns (bool isForSale, address seller, uint value, address onlySellTo) {\n    Offer memory offer = ganTokenOfferedForSale[tokenId];\n    isForSale = offer.isForSale;\n    seller = offer.seller;\n    value = offer.value;\n    onlySellTo = offer.onlySellTo;\n  }\n\n  /// @notice Gets all the bid data related to a token\n  /// @param tokenId The id of the token\n  /// @return bid information\n  function getBidData(uint256 tokenId) view public returns (bool hasBid, address bidder, uint value) {\n    Bid memory bid = tokenBids[tokenId];\n    hasBid = bid.hasBid;\n    bidder = bid.bidder;\n    value = bid.value;\n  }\n\n  /// @notice Allows a bidder to withdraw their bid\n  /// @param tokenId The id of the token\n  function withdrawBid(uint256 tokenId) external payable {\n      Bid memory bid = tokenBids[tokenId];\n      require(tokenIdToOwner[tokenId] != msg.sender);\n      require(tokenIdToOwner[tokenId] != 0x0);\n      require(bid.bidder == msg.sender);\n\n      emit BidWithdrawn(tokenId, bid.value, msg.sender);\n      uint amount = bid.value;\n      tokenBids[tokenId] = Bid(false, tokenId, 0x0, 0);\n      // Refund the bid money\n      msg.sender.transfer(amount);\n  }\n\n  /// @notice Allows a sender to withdraw any amount in the contrat\n  function withdraw() external {\n    uint256 amount = pendingWithdrawals[msg.sender];\n    // Remember to zero the pending refund before\n    // sending to prevent re-entrancy attacks\n    pendingWithdrawals[msg.sender] = 0;\n    msg.sender.transfer(amount);\n  }\n\n}\n\n",
  "sourcePath": "/Users/colin/Projects/tutorial/anime-face-contracts/contracts/GanTokenMain.sol",
  "compiler": {
    "name": "solc",
    "version": "0.4.21+commit.dfe3193c.Emscripten.clang"
  },
  "schemaVersion": "2.0.0",
  "updatedAt": "2018-04-03T09:36:22.676Z"
}